{
  "contractName": "Manage",
  "abi": [
    {
      "inputs": [],
      "payable": false,
      "stateMutability": "nonpayable",
      "type": "constructor"
    },
    {
      "constant": true,
      "inputs": [],
      "name": "ContractOwner",
      "outputs": [
        {
          "internalType": "address",
          "name": "",
          "type": "address"
        }
      ],
      "payable": false,
      "stateMutability": "view",
      "type": "function"
    },
    {
      "constant": true,
      "inputs": [
        {
          "internalType": "address",
          "name": "",
          "type": "address"
        }
      ],
      "name": "DocsMap",
      "outputs": [
        {
          "internalType": "string",
          "name": "aadharHash",
          "type": "string"
        },
        {
          "internalType": "string",
          "name": "pancardHash",
          "type": "string"
        },
        {
          "internalType": "string",
          "name": "passportHash",
          "type": "string"
        }
      ],
      "payable": false,
      "stateMutability": "view",
      "type": "function"
    },
    {
      "constant": true,
      "inputs": [
        {
          "internalType": "address",
          "name": "",
          "type": "address"
        }
      ],
      "name": "OrgnisationMap",
      "outputs": [
        {
          "internalType": "uint256",
          "name": "organisationId",
          "type": "uint256"
        },
        {
          "internalType": "address",
          "name": "organisationAddress",
          "type": "address"
        },
        {
          "internalType": "string",
          "name": "organisationName",
          "type": "string"
        },
        {
          "internalType": "string",
          "name": "username",
          "type": "string"
        },
        {
          "internalType": "string",
          "name": "password",
          "type": "string"
        }
      ],
      "payable": false,
      "stateMutability": "view",
      "type": "function"
    },
    {
      "constant": true,
      "inputs": [
        {
          "internalType": "string",
          "name": "",
          "type": "string"
        }
      ],
      "name": "RequestMap",
      "outputs": [
        {
          "internalType": "string",
          "name": "requestId",
          "type": "string"
        },
        {
          "internalType": "string",
          "name": "userName",
          "type": "string"
        },
        {
          "internalType": "address",
          "name": "userAddress",
          "type": "address"
        },
        {
          "internalType": "string",
          "name": "organisationName",
          "type": "string"
        },
        {
          "internalType": "address",
          "name": "organisationAddress",
          "type": "address"
        },
        {
          "internalType": "string",
          "name": "aadhar",
          "type": "string"
        },
        {
          "internalType": "string",
          "name": "pancard",
          "type": "string"
        },
        {
          "internalType": "string",
          "name": "passport",
          "type": "string"
        },
        {
          "internalType": "string",
          "name": "status",
          "type": "string"
        }
      ],
      "payable": false,
      "stateMutability": "view",
      "type": "function"
    },
    {
      "constant": true,
      "inputs": [
        {
          "internalType": "address",
          "name": "",
          "type": "address"
        }
      ],
      "name": "UserMap",
      "outputs": [
        {
          "internalType": "uint256",
          "name": "userId",
          "type": "uint256"
        },
        {
          "internalType": "address",
          "name": "userAddress",
          "type": "address"
        },
        {
          "internalType": "string",
          "name": "firstName",
          "type": "string"
        },
        {
          "internalType": "string",
          "name": "lastName",
          "type": "string"
        },
        {
          "internalType": "string",
          "name": "username",
          "type": "string"
        },
        {
          "internalType": "string",
          "name": "password",
          "type": "string"
        }
      ],
      "payable": false,
      "stateMutability": "view",
      "type": "function"
    },
    {
      "constant": true,
      "inputs": [],
      "name": "organisationId",
      "outputs": [
        {
          "internalType": "uint256",
          "name": "",
          "type": "uint256"
        }
      ],
      "payable": false,
      "stateMutability": "view",
      "type": "function"
    },
    {
      "constant": true,
      "inputs": [],
      "name": "userId",
      "outputs": [
        {
          "internalType": "uint256",
          "name": "",
          "type": "uint256"
        }
      ],
      "payable": false,
      "stateMutability": "view",
      "type": "function"
    },
    {
      "constant": false,
      "inputs": [
        {
          "internalType": "address",
          "name": "_userAddress",
          "type": "address"
        },
        {
          "internalType": "string",
          "name": "_firstName",
          "type": "string"
        },
        {
          "internalType": "string",
          "name": "_lastName",
          "type": "string"
        },
        {
          "internalType": "string",
          "name": "_username",
          "type": "string"
        },
        {
          "internalType": "string",
          "name": "_password",
          "type": "string"
        },
        {
          "internalType": "string[]",
          "name": "_requestList",
          "type": "string[]"
        }
      ],
      "name": "addUser",
      "outputs": [],
      "payable": false,
      "stateMutability": "nonpayable",
      "type": "function"
    },
    {
      "constant": true,
      "inputs": [
        {
          "internalType": "address",
          "name": "_userAddress",
          "type": "address"
        }
      ],
      "name": "getUser",
      "outputs": [
        {
          "internalType": "uint256",
          "name": "_userId",
          "type": "uint256"
        },
        {
          "internalType": "string",
          "name": "_displayName",
          "type": "string"
        },
        {
          "internalType": "string",
          "name": "_firstName",
          "type": "string"
        },
        {
          "internalType": "string",
          "name": "_lastName",
          "type": "string"
        },
        {
          "internalType": "string",
          "name": "_username",
          "type": "string"
        },
        {
          "internalType": "string",
          "name": "_password",
          "type": "string"
        },
        {
          "internalType": "string[]",
          "name": "_requestList",
          "type": "string[]"
        }
      ],
      "payable": false,
      "stateMutability": "view",
      "type": "function"
    },
    {
      "constant": false,
      "inputs": [
        {
          "internalType": "address",
          "name": "_userAddress",
          "type": "address"
        },
        {
          "internalType": "string",
          "name": "_aadharHash",
          "type": "string"
        },
        {
          "internalType": "string",
          "name": "_pancardHash",
          "type": "string"
        },
        {
          "internalType": "string",
          "name": "_passportHash",
          "type": "string"
        }
      ],
      "name": "uploadUserDocs",
      "outputs": [],
      "payable": false,
      "stateMutability": "nonpayable",
      "type": "function"
    },
    {
      "constant": true,
      "inputs": [
        {
          "internalType": "address",
          "name": "_userAddress",
          "type": "address"
        }
      ],
      "name": "getUserDocs",
      "outputs": [
        {
          "internalType": "string",
          "name": "_aadharHash",
          "type": "string"
        },
        {
          "internalType": "string",
          "name": "_pancardHash",
          "type": "string"
        },
        {
          "internalType": "string",
          "name": "_passportHash",
          "type": "string"
        }
      ],
      "payable": false,
      "stateMutability": "view",
      "type": "function"
    },
    {
      "constant": false,
      "inputs": [
        {
          "internalType": "address",
          "name": "_organisationAddress",
          "type": "address"
        },
        {
          "internalType": "string",
          "name": "_organisationName",
          "type": "string"
        },
        {
          "internalType": "string",
          "name": "_username",
          "type": "string"
        },
        {
          "internalType": "string",
          "name": "_password",
          "type": "string"
        },
        {
          "internalType": "string[]",
          "name": "_requestList",
          "type": "string[]"
        }
      ],
      "name": "addOrganisation",
      "outputs": [],
      "payable": false,
      "stateMutability": "nonpayable",
      "type": "function"
    },
    {
      "constant": true,
      "inputs": [
        {
          "internalType": "address",
          "name": "_organisationAddress",
          "type": "address"
        }
      ],
      "name": "getOrganisation",
      "outputs": [
        {
          "internalType": "uint256",
          "name": "_organisationId",
          "type": "uint256"
        },
        {
          "internalType": "string",
          "name": "_displayName",
          "type": "string"
        },
        {
          "internalType": "string",
          "name": "_organisationName",
          "type": "string"
        },
        {
          "internalType": "string",
          "name": "_username",
          "type": "string"
        },
        {
          "internalType": "string",
          "name": "_password",
          "type": "string"
        },
        {
          "internalType": "string[]",
          "name": "_requestList",
          "type": "string[]"
        }
      ],
      "payable": false,
      "stateMutability": "view",
      "type": "function"
    },
    {
      "constant": false,
      "inputs": [
        {
          "internalType": "string",
          "name": "_requestId",
          "type": "string"
        },
        {
          "internalType": "string",
          "name": "_userName",
          "type": "string"
        },
        {
          "internalType": "address",
          "name": "_userAddress",
          "type": "address"
        },
        {
          "internalType": "string",
          "name": "_organisationName",
          "type": "string"
        },
        {
          "internalType": "address",
          "name": "_organisationAddress",
          "type": "address"
        },
        {
          "internalType": "string",
          "name": "_aadhar",
          "type": "string"
        },
        {
          "internalType": "string",
          "name": "_pancard",
          "type": "string"
        },
        {
          "internalType": "string",
          "name": "_passport",
          "type": "string"
        }
      ],
      "name": "addRequest",
      "outputs": [],
      "payable": false,
      "stateMutability": "nonpayable",
      "type": "function"
    },
    {
      "constant": true,
      "inputs": [
        {
          "internalType": "string",
          "name": "_id",
          "type": "string"
        }
      ],
      "name": "getRequest",
      "outputs": [
        {
          "internalType": "string",
          "name": "_requestId",
          "type": "string"
        },
        {
          "internalType": "string",
          "name": "_userName",
          "type": "string"
        },
        {
          "internalType": "address",
          "name": "_userAddress",
          "type": "address"
        },
        {
          "internalType": "string",
          "name": "_organisationName",
          "type": "string"
        },
        {
          "internalType": "address",
          "name": "_organisationAddress",
          "type": "address"
        },
        {
          "internalType": "string",
          "name": "_aadhar",
          "type": "string"
        },
        {
          "internalType": "string",
          "name": "_pancard",
          "type": "string"
        },
        {
          "internalType": "string",
          "name": "_passport",
          "type": "string"
        },
        {
          "internalType": "string",
          "name": "_status",
          "type": "string"
        }
      ],
      "payable": false,
      "stateMutability": "view",
      "type": "function"
    },
    {
      "constant": false,
      "inputs": [
        {
          "internalType": "string",
          "name": "_requestId",
          "type": "string"
        },
        {
          "internalType": "string",
          "name": "_aadhar",
          "type": "string"
        },
        {
          "internalType": "string",
          "name": "_pancard",
          "type": "string"
        },
        {
          "internalType": "string",
          "name": "_passport",
          "type": "string"
        },
        {
          "internalType": "string",
          "name": "_status",
          "type": "string"
        }
      ],
      "name": "updateRequest",
      "outputs": [],
      "payable": false,
      "stateMutability": "nonpayable",
      "type": "function"
    },
    {
      "constant": true,
      "inputs": [
        {
          "internalType": "string",
          "name": "a",
          "type": "string"
        },
        {
          "internalType": "string",
          "name": "b",
          "type": "string"
        }
      ],
      "name": "concatenate",
      "outputs": [
        {
          "internalType": "string",
          "name": "",
          "type": "string"
        }
      ],
      "payable": false,
      "stateMutability": "pure",
      "type": "function"
    }
  ],
  "bytecode": "0x60806040526000600155600060025534801561001a57600080fd5b50336000806101000a81548173ffffffffffffffffffffffffffffffffffffffff021916908373ffffffffffffffffffffffffffffffffffffffff1602179055506138468061006a6000396000f3fe608060405234801561001057600080fd5b506004361061010b5760003560e01c80636f77926b116100a2578063ada6902111610071578063ada6902114610310578063b73454d11461032c578063c67720ec1461035e578063f7aa9f6f1461037a578063f8e4e069146103965761010b565b80636f77926b1461024f57806385b92413146102855780638bc4de23146102bd57806397a08aca146102db5761010b565b806331c02c11116100de57806331c02c11146101ac5780634af1f98b146101e157806358975919146102135780635a63fbc9146102315761010b565b806314e9abf814610110578063252408da14610144578063266001d31461016057806326c7748114610190575b600080fd5b61012a60048036036101259190810190612a18565b6103ce565b60405161013b959493929190613432565b60405180910390f35b61015e60048036036101599190810190612a41565b6105ec565b005b61017a60048036036101759190810190612d46565b6106a6565b60405161018791906131e1565b60405180910390f35b6101aa60048036036101a59190810190612ef4565b6106d2565b005b6101c660048036036101c19190810190612a18565b6107b1565b6040516101d89695949392919061349a565b60405180910390f35b6101fb60048036036101f69190810190612a18565b610a6d565b60405161020a939291906132c1565b60405180910390f35b61021b610ca3565b6040516102289190613417565b60405180910390f35b610239610ca9565b60405161024691906131c6565b60405180910390f35b61026960048036036102649190810190612a18565b610cce565b60405161027c979695949392919061359b565b60405180910390f35b61029f600480360361029a9190810190612d05565b611142565b6040516102b499989796959493929190613203565b60405180910390f35b6102c561163d565b6040516102d29190613417565b60405180910390f35b6102f560048036036102f09190810190612a18565b611643565b60405161030796959493929190613517565b60405180910390f35b61032a60048036036103259190810190612db2565b611a12565b005b61034660048036036103419190810190612a18565b611d42565b604051610355939291906133cb565b60405180910390f35b61037860048036036103739190810190612aec565b611f34565b005b610394600480360361038f9190810190612bc3565b612099565b005b6103b060048036036103ab9190810190612cc4565b612222565b6040516103c59998979695949392919061330d565b60405180910390f35b60056020528060005260406000206000915090508060000154908060010160009054906101000a900473ffffffffffffffffffffffffffffffffffffffff1690806002018054600181600116156101000203166002900480601f0160208091040260200160405190810160405280929190818152602001828054600181600116156101000203166002900480156104a65780601f1061047b576101008083540402835291602001916104a6565b820191906000526020600020905b81548152906001019060200180831161048957829003601f168201915b505050505090806003018054600181600116156101000203166002900480601f0160208091040260200160405190810160405280929190818152602001828054600181600116156101000203166002900480156105445780601f1061051957610100808354040283529160200191610544565b820191906000526020600020905b81548152906001019060200180831161052757829003601f168201915b505050505090806004018054600181600116156101000203166002900480601f0160208091040260200160405190810160405280929190818152602001828054600181600116156101000203166002900480156105e25780601f106105b7576101008083540402835291602001916105e2565b820191906000526020600020905b8154815290600101906020018083116105c557829003601f168201915b5050505050905085565b604051806060016040528084815260200183815260200182815250600460008673ffffffffffffffffffffffffffffffffffffffff1673ffffffffffffffffffffffffffffffffffffffff16815260200190815260200160002060008201518160000190805190602001906106629291906126ee565b50602082015181600101908051906020019061067f9291906126ee565b50604082015181600201908051906020019061069c9291906126ee565b5090505050505050565b606082826040516020016106bb929190613197565b604051602081830303815290604052905092915050565b836006866040516106e39190613180565b9081526020016040518091039020600501908051906020019061070792919061276e565b50826006866040516107199190613180565b9081526020016040518091039020600601908051906020019061073d92919061276e565b508160068660405161074f9190613180565b9081526020016040518091039020600701908051906020019061077392919061276e565b50806006866040516107859190613180565b908152602001604051809103902060080190805190602001906107a992919061276e565b505050505050565b60036020528060005260406000206000915090508060000154908060010160009054906101000a900473ffffffffffffffffffffffffffffffffffffffff1690806002018054600181600116156101000203166002900480601f0160208091040260200160405190810160405280929190818152602001828054600181600116156101000203166002900480156108895780601f1061085e57610100808354040283529160200191610889565b820191906000526020600020905b81548152906001019060200180831161086c57829003601f168201915b505050505090806003018054600181600116156101000203166002900480601f0160208091040260200160405190810160405280929190818152602001828054600181600116156101000203166002900480156109275780601f106108fc57610100808354040283529160200191610927565b820191906000526020600020905b81548152906001019060200180831161090a57829003601f168201915b505050505090806004018054600181600116156101000203166002900480601f0160208091040260200160405190810160405280929190818152602001828054600181600116156101000203166002900480156109c55780601f1061099a576101008083540402835291602001916109c5565b820191906000526020600020905b8154815290600101906020018083116109a857829003601f168201915b505050505090806005018054600181600116156101000203166002900480601f016020809104026020016040519081016040528092919081815260200182805460018160011615610100020316600290048015610a635780601f10610a3857610100808354040283529160200191610a63565b820191906000526020600020905b815481529060010190602001808311610a4657829003601f168201915b5050505050905086565b60608060606000600460008673ffffffffffffffffffffffffffffffffffffffff1673ffffffffffffffffffffffffffffffffffffffff1681526020019081526020016000209050806000018160010182600201828054600181600116156101000203166002900480601f016020809104026020016040519081016040528092919081815260200182805460018160011615610100020316600290048015610b565780601f10610b2b57610100808354040283529160200191610b56565b820191906000526020600020905b815481529060010190602001808311610b3957829003601f168201915b50505050509250818054600181600116156101000203166002900480601f016020809104026020016040519081016040528092919081815260200182805460018160011615610100020316600290048015610bf25780601f10610bc757610100808354040283529160200191610bf2565b820191906000526020600020905b815481529060010190602001808311610bd557829003601f168201915b50505050509150808054600181600116156101000203166002900480601f016020809104026020016040519081016040528092919081815260200182805460018160011615610100020316600290048015610c8e5780601f10610c6357610100808354040283529160200191610c8e565b820191906000526020600020905b815481529060010190602001808311610c7157829003601f168201915b50505050509050935093509350509193909250565b60015481565b6000809054906101000a900473ffffffffffffffffffffffffffffffffffffffff1681565b60006060806060806060806000600360008a73ffffffffffffffffffffffffffffffffffffffff1673ffffffffffffffffffffffffffffffffffffffff16815260200190815260200160002090508060000154816002018260020183600301846004018560050186600601858054600181600116156101000203166002900480601f016020809104026020016040519081016040528092919081815260200182805460018160011615610100020316600290048015610dce5780601f10610da357610100808354040283529160200191610dce565b820191906000526020600020905b815481529060010190602001808311610db157829003601f168201915b50505050509550848054600181600116156101000203166002900480601f016020809104026020016040519081016040528092919081815260200182805460018160011615610100020316600290048015610e6a5780601f10610e3f57610100808354040283529160200191610e6a565b820191906000526020600020905b815481529060010190602001808311610e4d57829003601f168201915b50505050509450838054600181600116156101000203166002900480601f016020809104026020016040519081016040528092919081815260200182805460018160011615610100020316600290048015610f065780601f10610edb57610100808354040283529160200191610f06565b820191906000526020600020905b815481529060010190602001808311610ee957829003601f168201915b50505050509350828054600181600116156101000203166002900480601f016020809104026020016040519081016040528092919081815260200182805460018160011615610100020316600290048015610fa25780601f10610f7757610100808354040283529160200191610fa2565b820191906000526020600020905b815481529060010190602001808311610f8557829003601f168201915b50505050509250818054600181600116156101000203166002900480601f01602080910402602001604051908101604052809291908181526020018280546001816001161561010002031660029004801561103e5780601f106110135761010080835404028352916020019161103e565b820191906000526020600020905b81548152906001019060200180831161102157829003601f168201915b5050505050915080805480602002602001604051908101604052809291908181526020016000905b82821015611122578382906000526020600020018054600181600116156101000203166002900480601f01602080910402602001604051908101604052809291908181526020018280546001816001161561010002031660029004801561110e5780601f106110e35761010080835404028352916020019161110e565b820191906000526020600020905b8154815290600101906020018083116110f157829003601f168201915b505050505081526020019060010190611066565b505050509050975097509750975097509750975050919395979092949650565b606080600060606000606080606080600060068b6040516111639190613180565b9081526020016040518091039020905080600001816001018260020160009054906101000a900473ffffffffffffffffffffffffffffffffffffffff16836003018460040160009054906101000a900473ffffffffffffffffffffffffffffffffffffffff1685600501866006018760070188600801888054600181600116156101000203166002900480601f01602080910402602001604051908101604052809291908181526020018280546001816001161561010002031660029004801561126e5780601f106112435761010080835404028352916020019161126e565b820191906000526020600020905b81548152906001019060200180831161125157829003601f168201915b50505050509850878054600181600116156101000203166002900480601f01602080910402602001604051908101604052809291908181526020018280546001816001161561010002031660029004801561130a5780601f106112df5761010080835404028352916020019161130a565b820191906000526020600020905b8154815290600101906020018083116112ed57829003601f168201915b50505050509750858054600181600116156101000203166002900480601f0160208091040260200160405190810160405280929190818152602001828054600181600116156101000203166002900480156113a65780601f1061137b576101008083540402835291602001916113a6565b820191906000526020600020905b81548152906001019060200180831161138957829003601f168201915b50505050509550838054600181600116156101000203166002900480601f0160208091040260200160405190810160405280929190818152602001828054600181600116156101000203166002900480156114425780601f1061141757610100808354040283529160200191611442565b820191906000526020600020905b81548152906001019060200180831161142557829003601f168201915b50505050509350828054600181600116156101000203166002900480601f0160208091040260200160405190810160405280929190818152602001828054600181600116156101000203166002900480156114de5780601f106114b3576101008083540402835291602001916114de565b820191906000526020600020905b8154815290600101906020018083116114c157829003601f168201915b50505050509250818054600181600116156101000203166002900480601f01602080910402602001604051908101604052809291908181526020018280546001816001161561010002031660029004801561157a5780601f1061154f5761010080835404028352916020019161157a565b820191906000526020600020905b81548152906001019060200180831161155d57829003601f168201915b50505050509150808054600181600116156101000203166002900480601f0160208091040260200160405190810160405280929190818152602001828054600181600116156101000203166002900480156116165780601f106115eb57610100808354040283529160200191611616565b820191906000526020600020905b8154815290600101906020018083116115f957829003601f168201915b50505050509050995099509950995099509950995099509950509193959799909294969850565b60025481565b600060608060608060606000600560008973ffffffffffffffffffffffffffffffffffffffff1673ffffffffffffffffffffffffffffffffffffffff168152602001908152602001600020905080600001548160020182600201836003018460040185600501848054600181600116156101000203166002900480601f01602080910402602001604051908101604052809291908181526020018280546001816001161561010002031660029004801561173e5780601f106117135761010080835404028352916020019161173e565b820191906000526020600020905b81548152906001019060200180831161172157829003601f168201915b50505050509450838054600181600116156101000203166002900480601f0160208091040260200160405190810160405280929190818152602001828054600181600116156101000203166002900480156117da5780601f106117af576101008083540402835291602001916117da565b820191906000526020600020905b8154815290600101906020018083116117bd57829003601f168201915b50505050509350828054600181600116156101000203166002900480601f0160208091040260200160405190810160405280929190818152602001828054600181600116156101000203166002900480156118765780601f1061184b57610100808354040283529160200191611876565b820191906000526020600020905b81548152906001019060200180831161185957829003601f168201915b50505050509250818054600181600116156101000203166002900480601f0160208091040260200160405190810160405280929190818152602001828054600181600116156101000203166002900480156119125780601f106118e757610100808354040283529160200191611912565b820191906000526020600020905b8154815290600101906020018083116118f557829003601f168201915b5050505050915080805480602002602001604051908101604052809291908181526020016000905b828210156119f6578382906000526020600020018054600181600116156101000203166002900480601f0160208091040260200160405190810160405280929190818152602001828054600181600116156101000203166002900480156119e25780601f106119b7576101008083540402835291602001916119e2565b820191906000526020600020905b8154815290600101906020018083116119c557829003601f168201915b50505050508152602001906001019061193a565b5050505090509650965096509650965096505091939550919395565b6040518061012001604052808981526020018881526020018773ffffffffffffffffffffffffffffffffffffffff1681526020018681526020018573ffffffffffffffffffffffffffffffffffffffff1681526020018481526020018381526020018281526020016040518060400160405280600181526020017f3100000000000000000000000000000000000000000000000000000000000000815250815250600689604051611ac39190613180565b90815260200160405180910390206000820151816000019080519060200190611aed9291906126ee565b506020820151816001019080519060200190611b0a9291906126ee565b5060408201518160020160006101000a81548173ffffffffffffffffffffffffffffffffffffffff021916908373ffffffffffffffffffffffffffffffffffffffff1602179055506060820151816003019080519060200190611b6e9291906126ee565b5060808201518160040160006101000a81548173ffffffffffffffffffffffffffffffffffffffff021916908373ffffffffffffffffffffffffffffffffffffffff16021790555060a0820151816005019080519060200190611bd29291906126ee565b5060c0820151816006019080519060200190611bef9291906126ee565b5060e0820151816007019080519060200190611c0c9291906126ee565b50610100820151816008019080519060200190611c2a9291906126ee565b509050506000600360008873ffffffffffffffffffffffffffffffffffffffff1673ffffffffffffffffffffffffffffffffffffffff168152602001908152602001600020905080600601899080600181540180825580915050906001820390600052602060002001600090919290919091509080519060200190611cb092919061276e565b50506000600560008773ffffffffffffffffffffffffffffffffffffffff1673ffffffffffffffffffffffffffffffffffffffff1681526020019081526020016000209050806005018a9080600181540180825580915050906001820390600052602060002001600090919290919091509080519060200190611d3492919061276e565b505050505050505050505050565b6004602052806000526040600020600091509050806000018054600181600116156101000203166002900480601f016020809104026020016040519081016040528092919081815260200182805460018160011615610100020316600290048015611dee5780601f10611dc357610100808354040283529160200191611dee565b820191906000526020600020905b815481529060010190602001808311611dd157829003601f168201915b505050505090806001018054600181600116156101000203166002900480601f016020809104026020016040519081016040528092919081815260200182805460018160011615610100020316600290048015611e8c5780601f10611e6157610100808354040283529160200191611e8c565b820191906000526020600020905b815481529060010190602001808311611e6f57829003601f168201915b505050505090806002018054600181600116156101000203166002900480601f016020809104026020016040519081016040528092919081815260200182805460018160011615610100020316600290048015611f2a5780601f10611eff57610100808354040283529160200191611f2a565b820191906000526020600020905b815481529060010190602001808311611f0d57829003601f168201915b5050505050905083565b6002600081548092919060010191905055506040518060c0016040528060025481526020018673ffffffffffffffffffffffffffffffffffffffff16815260200185815260200184815260200183815260200182815250600560008773ffffffffffffffffffffffffffffffffffffffff1673ffffffffffffffffffffffffffffffffffffffff1681526020019081526020016000206000820151816000015560208201518160010160006101000a81548173ffffffffffffffffffffffffffffffffffffffff021916908373ffffffffffffffffffffffffffffffffffffffff16021790555060408201518160020190805190602001906120379291906126ee565b5060608201518160030190805190602001906120549291906126ee565b5060808201518160040190805190602001906120719291906126ee565b5060a082015181600501908051906020019061208e9291906127ee565b509050505050505050565b6001600081548092919060010191905055506040518060e0016040528060015481526020018773ffffffffffffffffffffffffffffffffffffffff16815260200186815260200185815260200184815260200183815260200182815250600360008873ffffffffffffffffffffffffffffffffffffffff1673ffffffffffffffffffffffffffffffffffffffff1681526020019081526020016000206000820151816000015560208201518160010160006101000a81548173ffffffffffffffffffffffffffffffffffffffff021916908373ffffffffffffffffffffffffffffffffffffffff16021790555060408201518160020190805190602001906121a29291906126ee565b5060608201518160030190805190602001906121bf9291906126ee565b5060808201518160040190805190602001906121dc9291906126ee565b5060a08201518160050190805190602001906121f99291906126ee565b5060c08201518160060190805190602001906122169291906127ee565b50905050505050505050565b600681805160208101820180518482526020830160208501208183528095505050505050600091509050806000018054600181600116156101000203166002900480601f0160208091040260200160405190810160405280929190818152602001828054600181600116156101000203166002900480156122e45780601f106122b9576101008083540402835291602001916122e4565b820191906000526020600020905b8154815290600101906020018083116122c757829003601f168201915b505050505090806001018054600181600116156101000203166002900480601f0160208091040260200160405190810160405280929190818152602001828054600181600116156101000203166002900480156123825780601f1061235757610100808354040283529160200191612382565b820191906000526020600020905b81548152906001019060200180831161236557829003601f168201915b5050505050908060020160009054906101000a900473ffffffffffffffffffffffffffffffffffffffff1690806003018054600181600116156101000203166002900480601f0160208091040260200160405190810160405280929190818152602001828054600181600116156101000203166002900480156124465780601f1061241b57610100808354040283529160200191612446565b820191906000526020600020905b81548152906001019060200180831161242957829003601f168201915b5050505050908060040160009054906101000a900473ffffffffffffffffffffffffffffffffffffffff1690806005018054600181600116156101000203166002900480601f01602080910402602001604051908101604052809291908181526020018280546001816001161561010002031660029004801561250a5780601f106124df5761010080835404028352916020019161250a565b820191906000526020600020905b8154815290600101906020018083116124ed57829003601f168201915b505050505090806006018054600181600116156101000203166002900480601f0160208091040260200160405190810160405280929190818152602001828054600181600116156101000203166002900480156125a85780601f1061257d576101008083540402835291602001916125a8565b820191906000526020600020905b81548152906001019060200180831161258b57829003601f168201915b505050505090806007018054600181600116156101000203166002900480601f0160208091040260200160405190810160405280929190818152602001828054600181600116156101000203166002900480156126465780601f1061261b57610100808354040283529160200191612646565b820191906000526020600020905b81548152906001019060200180831161262957829003601f168201915b505050505090806008018054600181600116156101000203166002900480601f0160208091040260200160405190810160405280929190818152602001828054600181600116156101000203166002900480156126e45780601f106126b9576101008083540402835291602001916126e4565b820191906000526020600020905b8154815290600101906020018083116126c757829003601f168201915b5050505050905089565b828054600181600116156101000203166002900490600052602060002090601f016020900481019282601f1061272f57805160ff191683800117855561275d565b8280016001018555821561275d579182015b8281111561275c578251825591602001919060010190612741565b5b50905061276a919061284e565b5090565b828054600181600116156101000203166002900490600052602060002090601f016020900481019282601f106127af57805160ff19168380011785556127dd565b828001600101855582156127dd579182015b828111156127dc5782518255916020019190600101906127c1565b5b5090506127ea919061284e565b5090565b82805482825590600052602060002090810192821561283d579160200282015b8281111561283c57825182908051906020019061282c9291906126ee565b509160200191906001019061280e565b5b50905061284a9190612873565b5090565b61287091905b8082111561286c576000816000905550600101612854565b5090565b90565b61289c91905b80821115612898576000818161288f919061289f565b50600101612879565b5090565b90565b50805460018160011615610100020316600290046000825580601f106128c557506128e4565b601f0160209004906000526020600020908101906128e3919061284e565b5b50565b6000813590506128f6816137ec565b92915050565b600082601f83011261290d57600080fd5b813561292061291b82613661565b613634565b9150818183526020840193506020810190508360005b83811015612966578135860161294c8882612970565b845260208401935060208301925050600181019050612936565b5050505092915050565b600082601f83011261298157600080fd5b813561299461298f82613689565b613634565b915080825260208301602083018583830111156129b057600080fd5b6129bb838284613799565b50505092915050565b600082601f8301126129d557600080fd5b81356129e86129e3826136b5565b613634565b91508082526020830160208301858383011115612a0457600080fd5b612a0f838284613799565b50505092915050565b600060208284031215612a2a57600080fd5b6000612a38848285016128e7565b91505092915050565b60008060008060808587031215612a5757600080fd5b6000612a65878288016128e7565b945050602085013567ffffffffffffffff811115612a8257600080fd5b612a8e878288016129c4565b935050604085013567ffffffffffffffff811115612aab57600080fd5b612ab7878288016129c4565b925050606085013567ffffffffffffffff811115612ad457600080fd5b612ae0878288016129c4565b91505092959194509250565b600080600080600060a08688031215612b0457600080fd5b6000612b12888289016128e7565b955050602086013567ffffffffffffffff811115612b2f57600080fd5b612b3b888289016129c4565b945050604086013567ffffffffffffffff811115612b5857600080fd5b612b64888289016129c4565b935050606086013567ffffffffffffffff811115612b8157600080fd5b612b8d888289016129c4565b925050608086013567ffffffffffffffff811115612baa57600080fd5b612bb6888289016128fc565b9150509295509295909350565b60008060008060008060c08789031215612bdc57600080fd5b6000612bea89828a016128e7565b965050602087013567ffffffffffffffff811115612c0757600080fd5b612c1389828a016129c4565b955050604087013567ffffffffffffffff811115612c3057600080fd5b612c3c89828a016129c4565b945050606087013567ffffffffffffffff811115612c5957600080fd5b612c6589828a016129c4565b935050608087013567ffffffffffffffff811115612c8257600080fd5b612c8e89828a016129c4565b92505060a087013567ffffffffffffffff811115612cab57600080fd5b612cb789828a016128fc565b9150509295509295509295565b600060208284031215612cd657600080fd5b600082013567ffffffffffffffff811115612cf057600080fd5b612cfc84828501612970565b91505092915050565b600060208284031215612d1757600080fd5b600082013567ffffffffffffffff811115612d3157600080fd5b612d3d848285016129c4565b91505092915050565b60008060408385031215612d5957600080fd5b600083013567ffffffffffffffff811115612d7357600080fd5b612d7f858286016129c4565b925050602083013567ffffffffffffffff811115612d9c57600080fd5b612da8858286016129c4565b9150509250929050565b600080600080600080600080610100898b031215612dcf57600080fd5b600089013567ffffffffffffffff811115612de957600080fd5b612df58b828c016129c4565b985050602089013567ffffffffffffffff811115612e1257600080fd5b612e1e8b828c016129c4565b9750506040612e2f8b828c016128e7565b965050606089013567ffffffffffffffff811115612e4c57600080fd5b612e588b828c016129c4565b9550506080612e698b828c016128e7565b94505060a089013567ffffffffffffffff811115612e8657600080fd5b612e928b828c016129c4565b93505060c089013567ffffffffffffffff811115612eaf57600080fd5b612ebb8b828c016129c4565b92505060e089013567ffffffffffffffff811115612ed857600080fd5b612ee48b828c016129c4565b9150509295985092959890939650565b600080600080600060a08688031215612f0c57600080fd5b600086013567ffffffffffffffff811115612f2657600080fd5b612f32888289016129c4565b955050602086013567ffffffffffffffff811115612f4f57600080fd5b612f5b888289016129c4565b945050604086013567ffffffffffffffff811115612f7857600080fd5b612f84888289016129c4565b935050606086013567ffffffffffffffff811115612fa157600080fd5b612fad888289016129c4565b925050608086013567ffffffffffffffff811115612fca57600080fd5b612fd6888289016129c4565b9150509295509295909350565b6000612fef83836130e5565b905092915050565b6130008161375d565b82525050565b6000613011826136f1565b61301b818561371f565b93508360208202850161302d856136e1565b8060005b85811015613069578484038952815161304a8582612fe3565b945061305583613712565b925060208a01995050600181019050613031565b50829750879550505050505092915050565b600061308682613707565b6130908185613741565b93506130a08185602086016137a8565b6130a9816137db565b840191505092915050565b60006130bf82613707565b6130c98185613752565b93506130d98185602086016137a8565b80840191505092915050565b60006130f0826136fc565b6130fa8185613730565b935061310a8185602086016137a8565b613113816137db565b840191505092915050565b6000613129826136fc565b6131338185613741565b93506131438185602086016137a8565b61314c816137db565b840191505092915050565b6000613164600083613752565b9150600082019050919050565b61317a8161378f565b82525050565b600061318c82846130b4565b915081905092915050565b60006131a382856130b4565b91506131ae82613157565b91506131ba82846130b4565b91508190509392505050565b60006020820190506131db6000830184612ff7565b92915050565b600060208201905081810360008301526131fb818461307b565b905092915050565b600061012082019050818103600083015261321e818c61307b565b90508181036020830152613232818b61307b565b9050613241604083018a612ff7565b8181036060830152613253818961307b565b90506132626080830188612ff7565b81810360a0830152613274818761307b565b905081810360c0830152613288818661307b565b905081810360e083015261329c818561307b565b90508181036101008301526132b1818461307b565b90509a9950505050505050505050565b600060608201905081810360008301526132db818661307b565b905081810360208301526132ef818561307b565b90508181036040830152613303818461307b565b9050949350505050565b6000610120820190508181036000830152613328818c61311e565b9050818103602083015261333c818b61311e565b905061334b604083018a612ff7565b818103606083015261335d818961311e565b905061336c6080830188612ff7565b81810360a083015261337e818761311e565b905081810360c0830152613392818661311e565b905081810360e08301526133a6818561311e565b90508181036101008301526133bb818461311e565b90509a9950505050505050505050565b600060608201905081810360008301526133e5818661311e565b905081810360208301526133f9818561311e565b9050818103604083015261340d818461311e565b9050949350505050565b600060208201905061342c6000830184613171565b92915050565b600060a0820190506134476000830188613171565b6134546020830187612ff7565b8181036040830152613466818661311e565b9050818103606083015261347a818561311e565b9050818103608083015261348e818461311e565b90509695505050505050565b600060c0820190506134af6000830189613171565b6134bc6020830188612ff7565b81810360408301526134ce818761311e565b905081810360608301526134e2818661311e565b905081810360808301526134f6818561311e565b905081810360a083015261350a818461311e565b9050979650505050505050565b600060c08201905061352c6000830189613171565b818103602083015261353e818861307b565b90508181036040830152613552818761307b565b90508181036060830152613566818661307b565b9050818103608083015261357a818561307b565b905081810360a083015261358e8184613006565b9050979650505050505050565b600060e0820190506135b0600083018a613171565b81810360208301526135c2818961307b565b905081810360408301526135d6818861307b565b905081810360608301526135ea818761307b565b905081810360808301526135fe818661307b565b905081810360a0830152613612818561307b565b905081810360c08301526136268184613006565b905098975050505050505050565b6000604051905081810181811067ffffffffffffffff8211171561365757600080fd5b8060405250919050565b600067ffffffffffffffff82111561367857600080fd5b602082029050602081019050919050565b600067ffffffffffffffff8211156136a057600080fd5b601f19601f8301169050602081019050919050565b600067ffffffffffffffff8211156136cc57600080fd5b601f19601f8301169050602081019050919050565b6000819050602082019050919050565b600081519050919050565b600081519050919050565b600081519050919050565b6000602082019050919050565b600082825260208201905092915050565b600082825260208201905092915050565b600082825260208201905092915050565b600081905092915050565b60006137688261376f565b9050919050565b600073ffffffffffffffffffffffffffffffffffffffff82169050919050565b6000819050919050565b82818337600083830152505050565b60005b838110156137c65780820151818401526020810190506137ab565b838111156137d5576000848401525b50505050565b6000601f19601f8301169050919050565b6137f58161375d565b811461380057600080fd5b5056fea365627a7a72315820b3f24548354f2c343a54a595238ac9cd2228c3c639fbd2a31fc746e87e0503466c6578706572696d656e74616cf564736f6c63430005100040",
  "source": "pragma solidity >=0.5.16 <0.8.0;\n\npragma experimental ABIEncoderV2;\n\ncontract Manage {\n    address public ContractOwner;\n\n    uint256 public userId = 0;\n    uint256 public organisationId = 0;\n\n    constructor() public {\n        ContractOwner = msg.sender;\n    }\n\n    // User\n    struct User {\n        uint256 userId;\n        address userAddress;\n        string firstName;\n        string lastName;\n        string username;\n        string password;\n        string[] requestList;\n    }\n    mapping(address => User) public UserMap; // mapping with addresses\n\n    function addUser(\n        address _userAddress,\n        string memory _firstName,\n        string memory _lastName,\n        string memory _username,\n        string memory _password,\n        string[] memory _requestList\n    ) public {\n        userId++;\n        UserMap[_userAddress] = User(\n            userId,\n            _userAddress,\n            _firstName,\n            _lastName,\n            _username,\n            _password,\n            _requestList\n        );\n    }\n\n    function getUser(address _userAddress)\n        public\n        view\n        returns (\n            uint256 _userId,\n            string memory _displayName,\n            string memory _firstName,\n            string memory _lastName,\n            string memory _username,\n            string memory _password,\n            string[] memory _requestList\n        )\n    {\n        User storage thisUser = UserMap[_userAddress];\n        return (\n            thisUser.userId,\n            thisUser.firstName,\n            thisUser.firstName,\n            thisUser.lastName,\n            thisUser.username,\n            thisUser.password,\n            thisUser.requestList\n        );\n    }\n\n    // Documents\n    struct Docs {\n        string aadharHash;\n        string pancardHash;\n        string passportHash;\n    }\n    mapping(address => Docs) public DocsMap;\n\n    function uploadUserDocs(\n        address _userAddress,\n        string memory _aadharHash,\n        string memory _pancardHash,\n        string memory _passportHash\n    ) public {\n        DocsMap[_userAddress] = Docs(_aadharHash, _pancardHash, _passportHash);\n    }\n\n    function getUserDocs(address _userAddress)\n        public\n        view\n        returns (\n            string memory _aadharHash,\n            string memory _pancardHash,\n            string memory _passportHash\n        )\n    {\n        Docs storage thisDocs = DocsMap[_userAddress];\n        return (\n            thisDocs.aadharHash,\n            thisDocs.pancardHash,\n            thisDocs.passportHash\n        );\n    }\n\n    // Organisation\n    struct Organisation {\n        uint256 organisationId;\n        address organisationAddress;\n        string organisationName;\n        string username;\n        string password;\n        string[] requestList;\n    }\n    mapping(address => Organisation) public OrgnisationMap;\n\n    function addOrganisation(\n        address _organisationAddress,\n        string memory _organisationName,\n        string memory _username,\n        string memory _password,\n        string[] memory _requestList\n    ) public {\n        // (uint256 id, , , ) = getUser(user_address);\n        // require(id == 0, \"User already exist\");\n        organisationId++;\n        OrgnisationMap[_organisationAddress] = Organisation(\n            organisationId,\n            _organisationAddress,\n            _organisationName,\n            _username,\n            _password,\n            _requestList\n        );\n    }\n\n    function getOrganisation(address _organisationAddress)\n        public\n        view\n        returns (\n            uint256 _organisationId,\n            string memory _displayName,\n            string memory _organisationName,\n            string memory _username,\n            string memory _password,\n            string[] memory _requestList\n        )\n    {\n        Organisation storage thisOrg = OrgnisationMap[_organisationAddress];\n        return (\n            thisOrg.organisationId,\n            thisOrg.organisationName,\n            thisOrg.organisationName,\n            thisOrg.username,\n            thisOrg.password,\n            thisOrg.requestList\n        );\n    }\n\n    // Request\n    struct Request {\n        string requestId;\n        string userName;\n        address userAddress;\n        string organisationName;\n        address organisationAddress;\n        string aadhar;\n        string pancard;\n        string passport;\n        string status;\n    }\n    /* \n        Status\n        1: pending\n        2: approved\n        3: rejected\n    */\n    mapping(string => Request) public RequestMap; // mapping with requested orgnisation's address\n\n    function addRequest(\n        string memory _requestId,\n        string memory _userName,\n        address _userAddress,\n        string memory _organisationName,\n        address _organisationAddress,\n        string memory _aadhar,\n        string memory _pancard,\n        string memory _passport\n    ) public {\n        RequestMap[_requestId] = Request(\n            _requestId,\n            _userName,\n            _userAddress,\n            _organisationName,\n            _organisationAddress,\n            _aadhar,\n            _pancard,\n            _passport,\n            \"1\"\n        );\n\n        User storage thisUser = UserMap[_userAddress];\n        thisUser.requestList.push(_requestId);\n\n        Organisation storage thisOrg = OrgnisationMap[_organisationAddress];\n        thisOrg.requestList.push(_requestId);\n    }\n\n    function getRequest(string memory _id)\n        public\n        view\n        returns (\n            string memory _requestId,\n            string memory _userName,\n            address _userAddress,\n            string memory _organisationName,\n            address _organisationAddress,\n            string memory _aadhar,\n            string memory _pancard,\n            string memory _passport,\n            string memory _status\n        )\n    {\n        Request storage thisRequest = RequestMap[_id];\n        return (\n            thisRequest.requestId,\n            thisRequest.userName,\n            thisRequest.userAddress,\n            thisRequest.organisationName,\n            thisRequest.organisationAddress,\n            thisRequest.aadhar,\n            thisRequest.pancard,\n            thisRequest.passport,\n            thisRequest.status\n        );\n    }\n\n    function updateRequest(\n        string memory _requestId,\n        string memory _aadhar,\n        string memory _pancard,\n        string memory _passport,\n        string memory _status\n    ) public {\n        RequestMap[_requestId].aadhar = _aadhar;\n        RequestMap[_requestId].pancard = _pancard;\n        RequestMap[_requestId].passport = _passport;\n        RequestMap[_requestId].status = _status;\n    }\n\n    function concatenate(string memory a, string memory b)\n        public\n        pure\n        returns (string memory)\n    {\n        return string(abi.encodePacked(a, \"\", b));\n    }\n\n    function uint2str(uint256 _i)\n        internal\n        pure\n        returns (string memory _uintAsString)\n    {\n        if (_i == 0) {\n            return \"0\";\n        }\n        uint256 j = _i;\n        uint256 len;\n        while (j != 0) {\n            len++;\n            j /= 10;\n        }\n        bytes memory bstr = new bytes(len);\n        uint256 k = len;\n        while (_i != 0) {\n            k = k - 1;\n            uint8 temp = (48 + uint8(_i - (_i / 10) * 10));\n            bytes1 b1 = bytes1(temp);\n            bstr[k] = b1;\n            _i /= 10;\n        }\n        return string(bstr);\n    }\n}\n",
  "sourcePath": "/home/akash/Projects/ManageId/contracts/Manage.sol",
  "compiler": {
    "name": "solc",
    "version": "0.5.16+commit.9c3226ce.Emscripten.clang"
  },
  "schemaVersion": "3.4.7",
  "updatedAt": "2022-04-18T15:43:16.213Z",
  "networkType": "ethereum",
  "devdoc": {
    "methods": {}
  },
  "userdoc": {
    "methods": {}
  }
}