{
  "contractName": "ManageID",
  "abi": [
    {
      "inputs": [],
      "payable": false,
      "stateMutability": "nonpayable",
      "type": "constructor"
    },
    {
      "constant": true,
      "inputs": [],
      "name": "ContractOwner",
      "outputs": [
        {
          "internalType": "address",
          "name": "",
          "type": "address"
        }
      ],
      "payable": false,
      "stateMutability": "view",
      "type": "function"
    },
    {
      "constant": true,
      "inputs": [
        {
          "internalType": "address",
          "name": "",
          "type": "address"
        }
      ],
      "name": "OrgMap",
      "outputs": [
        {
          "internalType": "string",
          "name": "name",
          "type": "string"
        },
        {
          "internalType": "string",
          "name": "email",
          "type": "string"
        },
        {
          "internalType": "string",
          "name": "password",
          "type": "string"
        }
      ],
      "payable": false,
      "stateMutability": "view",
      "type": "function"
    },
    {
      "constant": true,
      "inputs": [
        {
          "internalType": "address",
          "name": "",
          "type": "address"
        }
      ],
      "name": "RequestDocumentsMap",
      "outputs": [
        {
          "internalType": "string",
          "name": "requestedBy",
          "type": "string"
        },
        {
          "internalType": "string",
          "name": "aadhar",
          "type": "string"
        },
        {
          "internalType": "string",
          "name": "dl",
          "type": "string"
        },
        {
          "internalType": "string",
          "name": "passport",
          "type": "string"
        }
      ],
      "payable": false,
      "stateMutability": "view",
      "type": "function"
    },
    {
      "constant": true,
      "inputs": [
        {
          "internalType": "address",
          "name": "",
          "type": "address"
        }
      ],
      "name": "UploadedDocMap",
      "outputs": [
        {
          "internalType": "bool",
          "name": "aadhar",
          "type": "bool"
        },
        {
          "internalType": "bool",
          "name": "driving_license",
          "type": "bool"
        },
        {
          "internalType": "bool",
          "name": "passport",
          "type": "bool"
        }
      ],
      "payable": false,
      "stateMutability": "view",
      "type": "function"
    },
    {
      "constant": true,
      "inputs": [
        {
          "internalType": "address",
          "name": "",
          "type": "address"
        }
      ],
      "name": "UserAadharMap",
      "outputs": [
        {
          "internalType": "string",
          "name": "aadhar_no",
          "type": "string"
        },
        {
          "internalType": "string",
          "name": "aadhar_name",
          "type": "string"
        },
        {
          "internalType": "string",
          "name": "aadhar_DOB",
          "type": "string"
        },
        {
          "internalType": "string",
          "name": "aadhar_ipfs_hash",
          "type": "string"
        }
      ],
      "payable": false,
      "stateMutability": "view",
      "type": "function"
    },
    {
      "constant": true,
      "inputs": [
        {
          "internalType": "address",
          "name": "",
          "type": "address"
        }
      ],
      "name": "UserDLMap",
      "outputs": [
        {
          "internalType": "string",
          "name": "dl_no",
          "type": "string"
        },
        {
          "internalType": "string",
          "name": "dl_name",
          "type": "string"
        },
        {
          "internalType": "string",
          "name": "dl_DOB",
          "type": "string"
        },
        {
          "internalType": "string",
          "name": "dl_ipfs_hash",
          "type": "string"
        }
      ],
      "payable": false,
      "stateMutability": "view",
      "type": "function"
    },
    {
      "constant": true,
      "inputs": [
        {
          "internalType": "address",
          "name": "",
          "type": "address"
        }
      ],
      "name": "UserMap",
      "outputs": [
        {
          "internalType": "string",
          "name": "first_name",
          "type": "string"
        },
        {
          "internalType": "string",
          "name": "last_name",
          "type": "string"
        },
        {
          "internalType": "string",
          "name": "email",
          "type": "string"
        },
        {
          "internalType": "uint256",
          "name": "phone_no",
          "type": "uint256"
        },
        {
          "internalType": "string",
          "name": "password",
          "type": "string"
        }
      ],
      "payable": false,
      "stateMutability": "view",
      "type": "function"
    },
    {
      "constant": true,
      "inputs": [
        {
          "internalType": "address",
          "name": "",
          "type": "address"
        }
      ],
      "name": "UserPassportMap",
      "outputs": [
        {
          "internalType": "string",
          "name": "passport_no",
          "type": "string"
        },
        {
          "internalType": "string",
          "name": "passport_name",
          "type": "string"
        },
        {
          "internalType": "string",
          "name": "passport_birth_place",
          "type": "string"
        },
        {
          "internalType": "string",
          "name": "passport_ipfs_hash",
          "type": "string"
        }
      ],
      "payable": false,
      "stateMutability": "view",
      "type": "function"
    },
    {
      "constant": false,
      "inputs": [
        {
          "internalType": "address",
          "name": "user_address",
          "type": "address"
        },
        {
          "internalType": "string",
          "name": "first_name",
          "type": "string"
        },
        {
          "internalType": "string",
          "name": "last_name",
          "type": "string"
        },
        {
          "internalType": "string",
          "name": "email",
          "type": "string"
        },
        {
          "internalType": "uint256",
          "name": "phone_no",
          "type": "uint256"
        },
        {
          "internalType": "string",
          "name": "password",
          "type": "string"
        }
      ],
      "name": "addUser",
      "outputs": [],
      "payable": false,
      "stateMutability": "nonpayable",
      "type": "function"
    },
    {
      "constant": false,
      "inputs": [
        {
          "internalType": "address",
          "name": "user_address",
          "type": "address"
        },
        {
          "internalType": "string",
          "name": "aadhar_no",
          "type": "string"
        },
        {
          "internalType": "string",
          "name": "aadhar_name",
          "type": "string"
        },
        {
          "internalType": "string",
          "name": "aadhar_dob",
          "type": "string"
        },
        {
          "internalType": "string",
          "name": "aadhar_ipfs_hash",
          "type": "string"
        }
      ],
      "name": "addUserAadhar",
      "outputs": [],
      "payable": false,
      "stateMutability": "nonpayable",
      "type": "function"
    },
    {
      "constant": false,
      "inputs": [
        {
          "internalType": "address",
          "name": "user_address",
          "type": "address"
        },
        {
          "internalType": "string",
          "name": "dl_no",
          "type": "string"
        },
        {
          "internalType": "string",
          "name": "dl_name",
          "type": "string"
        },
        {
          "internalType": "string",
          "name": "dl_dob",
          "type": "string"
        },
        {
          "internalType": "string",
          "name": "dl_ipfs_hash",
          "type": "string"
        }
      ],
      "name": "addUserDrivingLicense",
      "outputs": [],
      "payable": false,
      "stateMutability": "nonpayable",
      "type": "function"
    },
    {
      "constant": false,
      "inputs": [
        {
          "internalType": "address",
          "name": "user_address",
          "type": "address"
        },
        {
          "internalType": "string",
          "name": "passport_no",
          "type": "string"
        },
        {
          "internalType": "string",
          "name": "passport_name",
          "type": "string"
        },
        {
          "internalType": "string",
          "name": "passport_birth_place",
          "type": "string"
        },
        {
          "internalType": "string",
          "name": "passport_ipfs_hash",
          "type": "string"
        }
      ],
      "name": "addUserPassport",
      "outputs": [],
      "payable": false,
      "stateMutability": "nonpayable",
      "type": "function"
    },
    {
      "constant": true,
      "inputs": [
        {
          "internalType": "address",
          "name": "user_address",
          "type": "address"
        }
      ],
      "name": "getUploadedDocs",
      "outputs": [
        {
          "internalType": "bool",
          "name": "aadhar",
          "type": "bool"
        },
        {
          "internalType": "bool",
          "name": "driving_license",
          "type": "bool"
        },
        {
          "internalType": "bool",
          "name": "passport",
          "type": "bool"
        }
      ],
      "payable": false,
      "stateMutability": "view",
      "type": "function"
    },
    {
      "constant": true,
      "inputs": [
        {
          "internalType": "address",
          "name": "user_address",
          "type": "address"
        }
      ],
      "name": "getUser",
      "outputs": [
        {
          "internalType": "string",
          "name": "first_name",
          "type": "string"
        },
        {
          "internalType": "string",
          "name": "last_name",
          "type": "string"
        },
        {
          "internalType": "string",
          "name": "email",
          "type": "string"
        },
        {
          "internalType": "string",
          "name": "password",
          "type": "string"
        },
        {
          "internalType": "uint256",
          "name": "phone_no",
          "type": "uint256"
        }
      ],
      "payable": false,
      "stateMutability": "view",
      "type": "function"
    },
    {
      "constant": true,
      "inputs": [
        {
          "internalType": "address",
          "name": "user_address",
          "type": "address"
        }
      ],
      "name": "getUserAadhar",
      "outputs": [
        {
          "internalType": "string",
          "name": "aadhar_no",
          "type": "string"
        },
        {
          "internalType": "string",
          "name": "aadhar_name",
          "type": "string"
        },
        {
          "internalType": "string",
          "name": "aadhar_DOB",
          "type": "string"
        },
        {
          "internalType": "string",
          "name": "aadhar_ipfs_hash",
          "type": "string"
        }
      ],
      "payable": false,
      "stateMutability": "view",
      "type": "function"
    },
    {
      "constant": true,
      "inputs": [
        {
          "internalType": "address",
          "name": "user_address",
          "type": "address"
        }
      ],
      "name": "getUserDrivingLicense",
      "outputs": [
        {
          "internalType": "string",
          "name": "dl_no",
          "type": "string"
        },
        {
          "internalType": "string",
          "name": "dl_name",
          "type": "string"
        },
        {
          "internalType": "string",
          "name": "dl_DOB",
          "type": "string"
        },
        {
          "internalType": "string",
          "name": "dl_ipfs_hash",
          "type": "string"
        }
      ],
      "payable": false,
      "stateMutability": "view",
      "type": "function"
    },
    {
      "constant": true,
      "inputs": [
        {
          "internalType": "address",
          "name": "user_address",
          "type": "address"
        }
      ],
      "name": "getUserPassport",
      "outputs": [
        {
          "internalType": "string",
          "name": "passport_no",
          "type": "string"
        },
        {
          "internalType": "string",
          "name": "passport_name",
          "type": "string"
        },
        {
          "internalType": "string",
          "name": "passport_birth_place",
          "type": "string"
        },
        {
          "internalType": "string",
          "name": "passport_ipfs_hash",
          "type": "string"
        }
      ],
      "payable": false,
      "stateMutability": "view",
      "type": "function"
    },
    {
      "constant": false,
      "inputs": [
        {
          "internalType": "address",
          "name": "org_address",
          "type": "address"
        },
        {
          "internalType": "string",
          "name": "name",
          "type": "string"
        },
        {
          "internalType": "string",
          "name": "email",
          "type": "string"
        },
        {
          "internalType": "string",
          "name": "password",
          "type": "string"
        }
      ],
      "name": "addOrg",
      "outputs": [],
      "payable": false,
      "stateMutability": "nonpayable",
      "type": "function"
    },
    {
      "constant": true,
      "inputs": [
        {
          "internalType": "address",
          "name": "org_address",
          "type": "address"
        }
      ],
      "name": "getOrg",
      "outputs": [
        {
          "internalType": "string",
          "name": "name",
          "type": "string"
        },
        {
          "internalType": "string",
          "name": "email",
          "type": "string"
        },
        {
          "internalType": "string",
          "name": "password",
          "type": "string"
        }
      ],
      "payable": false,
      "stateMutability": "view",
      "type": "function"
    },
    {
      "constant": false,
      "inputs": [
        {
          "internalType": "string",
          "name": "requestedBy",
          "type": "string"
        },
        {
          "internalType": "string",
          "name": "aadhar",
          "type": "string"
        },
        {
          "internalType": "string",
          "name": "dl",
          "type": "string"
        },
        {
          "internalType": "string",
          "name": "passport",
          "type": "string"
        }
      ],
      "name": "sendRequest",
      "outputs": [],
      "payable": false,
      "stateMutability": "nonpayable",
      "type": "function"
    },
    {
      "constant": false,
      "inputs": [
        {
          "internalType": "address",
          "name": "user_address",
          "type": "address"
        },
        {
          "internalType": "string",
          "name": "requestedBy",
          "type": "string"
        },
        {
          "internalType": "string",
          "name": "aadhar",
          "type": "string"
        },
        {
          "internalType": "string",
          "name": "dl",
          "type": "string"
        },
        {
          "internalType": "string",
          "name": "passport",
          "type": "string"
        }
      ],
      "name": "sendApproved",
      "outputs": [],
      "payable": false,
      "stateMutability": "nonpayable",
      "type": "function"
    },
    {
      "constant": false,
      "inputs": [
        {
          "internalType": "address",
          "name": "user_address",
          "type": "address"
        },
        {
          "internalType": "string",
          "name": "requestedBy",
          "type": "string"
        },
        {
          "internalType": "string",
          "name": "aadhar",
          "type": "string"
        },
        {
          "internalType": "string",
          "name": "dl",
          "type": "string"
        },
        {
          "internalType": "string",
          "name": "passport",
          "type": "string"
        }
      ],
      "name": "sendRejected",
      "outputs": [],
      "payable": false,
      "stateMutability": "nonpayable",
      "type": "function"
    },
    {
      "constant": true,
      "inputs": [
        {
          "internalType": "address",
          "name": "user_address",
          "type": "address"
        }
      ],
      "name": "viewRequest",
      "outputs": [
        {
          "internalType": "string",
          "name": "requestedBy",
          "type": "string"
        },
        {
          "internalType": "string",
          "name": "aadhar",
          "type": "string"
        },
        {
          "internalType": "string",
          "name": "dl",
          "type": "string"
        },
        {
          "internalType": "string",
          "name": "passport",
          "type": "string"
        }
      ],
      "payable": false,
      "stateMutability": "view",
      "type": "function"
    }
  ],
  "bytecode": "0x608060405234801561001057600080fd5b50336000806101000a81548173ffffffffffffffffffffffffffffffffffffffff021916908373ffffffffffffffffffffffffffffffffffffffff16021790555061573c80620000616000396000f3fe608060405234801561001057600080fd5b506004361061014d5760003560e01c80634fa8c4f8116100c35780639eaa2f1e1161007c5780639eaa2f1e14611fb3578063ab02187614612253578063ab57b59e14612454578063b466f193146126f4578063bf43854f14612974578063e0e8513214612b755761014d565b80634fa8c4f81461163b5780635a63fbc9146118e5578063604b3c331461192f5780636561401514611b385780636f77926b14611baa5780638679907214611db25761014d565b80632bd9c64f116101155780632bd9c64f1461098f57806331c02c1114610b905780633d70157914610d98578063461d442b14610f995780634d6a53c21461119a5780634d9bd0a61461143a5761014d565b80630a702976146101525780630c300c32146102e757806315f390d4146103595780631f1f86521461055a57806324191d35146106ef575b600080fd5b6101946004803603602081101561016857600080fd5b81019080803573ffffffffffffffffffffffffffffffffffffffff169060200190929190505050612e15565b60405180806020018060200180602001848103845287818151815260200191508051906020019080838360005b838110156101dc5780820151818401526020810190506101c1565b50505050905090810190601f1680156102095780820380516001836020036101000a031916815260200191505b50848103835286818151815260200191508051906020019080838360005b83811015610242578082015181840152602081019050610227565b50505050905090810190601f16801561026f5780820380516001836020036101000a031916815260200191505b50848103825285818151815260200191508051906020019080838360005b838110156102a857808201518184015260208101905061028d565b50505050905090810190601f1680156102d55780820380516001836020036101000a031916815260200191505b50965050505050505060405180910390f35b610329600480360360208110156102fd57600080fd5b81019080803573ffffffffffffffffffffffffffffffffffffffff169060200190929190505050613007565b60405180841515151581526020018315151515815260200182151515158152602001935050505060405180910390f35b61039b6004803603602081101561036f57600080fd5b81019080803573ffffffffffffffffffffffffffffffffffffffff169060200190929190505050613058565b6040518080602001806020018060200180602001858103855289818151815260200191508051906020019080838360005b838110156103e75780820151818401526020810190506103cc565b50505050905090810190601f1680156104145780820380516001836020036101000a031916815260200191505b50858103845288818151815260200191508051906020019080838360005b8381101561044d578082015181840152602081019050610432565b50505050905090810190601f16801561047a5780820380516001836020036101000a031916815260200191505b50858103835287818151815260200191508051906020019080838360005b838110156104b3578082015181840152602081019050610498565b50505050905090810190601f1680156104e05780820380516001836020036101000a031916815260200191505b50858103825286818151815260200191508051906020019080838360005b838110156105195780820151818401526020810190506104fe565b50505050905090810190601f1680156105465780820380516001836020036101000a031916815260200191505b509850505050505050505060405180910390f35b61059c6004803603602081101561057057600080fd5b81019080803573ffffffffffffffffffffffffffffffffffffffff169060200190929190505050613331565b60405180806020018060200180602001848103845287818151815260200191508051906020019080838360005b838110156105e45780820151818401526020810190506105c9565b50505050905090810190601f1680156106115780820380516001836020036101000a031916815260200191505b50848103835286818151815260200191508051906020019080838360005b8381101561064a57808201518184015260208101905061062f565b50505050905090810190601f1680156106775780820380516001836020036101000a031916815260200191505b50848103825285818151815260200191508051906020019080838360005b838110156106b0578082015181840152602081019050610695565b50505050905090810190601f1680156106dd5780820380516001836020036101000a031916815260200191505b50965050505050505060405180910390f35b61098d600480360360a081101561070557600080fd5b81019080803573ffffffffffffffffffffffffffffffffffffffff1690602001909291908035906020019064010000000081111561074257600080fd5b82018360208201111561075457600080fd5b8035906020019184600183028401116401000000008311171561077657600080fd5b91908080601f016020809104026020016040519081016040528093929190818152602001838380828437600081840152601f19601f820116905080830192505050505050509192919290803590602001906401000000008111156107d957600080fd5b8201836020820111156107eb57600080fd5b8035906020019184600183028401116401000000008311171561080d57600080fd5b91908080601f016020809104026020016040519081016040528093929190818152602001838380828437600081840152601f19601f8201169050808301925050505050505091929192908035906020019064010000000081111561087057600080fd5b82018360208201111561088257600080fd5b803590602001918460018302840111640100000000831117156108a457600080fd5b91908080601f016020809104026020016040519081016040528093929190818152602001838380828437600081840152601f19601f8201169050808301925050505050505091929192908035906020019064010000000081111561090757600080fd5b82018360208201111561091957600080fd5b8035906020019184600183028401116401000000008311171561093b57600080fd5b91908080601f016020809104026020016040519081016040528093929190818152602001838380828437600081840152601f19601f820116905080830192505050505050509192919290505050613567565b005b6109d1600480360360208110156109a557600080fd5b81019080803573ffffffffffffffffffffffffffffffffffffffff169060200190929190505050613645565b6040518080602001806020018060200180602001858103855289818151815260200191508051906020019080838360005b83811015610a1d578082015181840152602081019050610a02565b50505050905090810190601f168015610a4a5780820380516001836020036101000a031916815260200191505b50858103845288818151815260200191508051906020019080838360005b83811015610a83578082015181840152602081019050610a68565b50505050905090810190601f168015610ab05780820380516001836020036101000a031916815260200191505b50858103835287818151815260200191508051906020019080838360005b83811015610ae9578082015181840152602081019050610ace565b50505050905090810190601f168015610b165780820380516001836020036101000a031916815260200191505b50858103825286818151815260200191508051906020019080838360005b83811015610b4f578082015181840152602081019050610b34565b50505050905090810190601f168015610b7c5780820380516001836020036101000a031916815260200191505b509850505050505050505060405180910390f35b610bd260048036036020811015610ba657600080fd5b81019080803573ffffffffffffffffffffffffffffffffffffffff1690602001909291905050506138d5565b604051808060200180602001806020018681526020018060200185810385528a818151815260200191508051906020019080838360005b83811015610c24578082015181840152602081019050610c09565b50505050905090810190601f168015610c515780820380516001836020036101000a031916815260200191505b50858103845289818151815260200191508051906020019080838360005b83811015610c8a578082015181840152602081019050610c6f565b50505050905090810190601f168015610cb75780820380516001836020036101000a031916815260200191505b50858103835288818151815260200191508051906020019080838360005b83811015610cf0578082015181840152602081019050610cd5565b50505050905090810190601f168015610d1d5780820380516001836020036101000a031916815260200191505b50858103825286818151815260200191508051906020019080838360005b83811015610d56578082015181840152602081019050610d3b565b50505050905090810190601f168015610d835780820380516001836020036101000a031916815260200191505b50995050505050505050505060405180910390f35b610dda60048036036020811015610dae57600080fd5b81019080803573ffffffffffffffffffffffffffffffffffffffff169060200190929190505050613b6b565b6040518080602001806020018060200180602001858103855289818151815260200191508051906020019080838360005b83811015610e26578082015181840152602081019050610e0b565b50505050905090810190601f168015610e535780820380516001836020036101000a031916815260200191505b50858103845288818151815260200191508051906020019080838360005b83811015610e8c578082015181840152602081019050610e71565b50505050905090810190601f168015610eb95780820380516001836020036101000a031916815260200191505b50858103835287818151815260200191508051906020019080838360005b83811015610ef2578082015181840152602081019050610ed7565b50505050905090810190601f168015610f1f5780820380516001836020036101000a031916815260200191505b50858103825286818151815260200191508051906020019080838360005b83811015610f58578082015181840152602081019050610f3d565b50505050905090810190601f168015610f855780820380516001836020036101000a031916815260200191505b509850505050505050505060405180910390f35b610fdb60048036036020811015610faf57600080fd5b81019080803573ffffffffffffffffffffffffffffffffffffffff169060200190929190505050613e44565b6040518080602001806020018060200180602001858103855289818151815260200191508051906020019080838360005b8381101561102757808201518184015260208101905061100c565b50505050905090810190601f1680156110545780820380516001836020036101000a031916815260200191505b50858103845288818151815260200191508051906020019080838360005b8381101561108d578082015181840152602081019050611072565b50505050905090810190601f1680156110ba5780820380516001836020036101000a031916815260200191505b50858103835287818151815260200191508051906020019080838360005b838110156110f35780820151818401526020810190506110d8565b50505050905090810190601f1680156111205780820380516001836020036101000a031916815260200191505b50858103825286818151815260200191508051906020019080838360005b8381101561115957808201518184015260208101905061113e565b50505050905090810190601f1680156111865780820380516001836020036101000a031916815260200191505b509850505050505050505060405180910390f35b611438600480360360a08110156111b057600080fd5b81019080803573ffffffffffffffffffffffffffffffffffffffff169060200190929190803590602001906401000000008111156111ed57600080fd5b8201836020820111156111ff57600080fd5b8035906020019184600183028401116401000000008311171561122157600080fd5b91908080601f016020809104026020016040519081016040528093929190818152602001838380828437600081840152601f19601f8201169050808301925050505050505091929192908035906020019064010000000081111561128457600080fd5b82018360208201111561129657600080fd5b803590602001918460018302840111640100000000831117156112b857600080fd5b91908080601f016020809104026020016040519081016040528093929190818152602001838380828437600081840152601f19601f8201169050808301925050505050505091929192908035906020019064010000000081111561131b57600080fd5b82018360208201111561132d57600080fd5b8035906020019184600183028401116401000000008311171561134f57600080fd5b91908080601f016020809104026020016040519081016040528093929190818152602001838380828437600081840152601f19601f820116905080830192505050505050509192919290803590602001906401000000008111156113b257600080fd5b8201836020820111156113c457600080fd5b803590602001918460018302840111640100000000831117156113e657600080fd5b91908080601f016020809104026020016040519081016040528093929190818152602001838380828437600081840152601f19601f8201169050808301925050505050505091929192905050506140d4565b005b61147c6004803603602081101561145057600080fd5b81019080803573ffffffffffffffffffffffffffffffffffffffff1690602001909291905050506141b2565b6040518080602001806020018060200180602001858103855289818151815260200191508051906020019080838360005b838110156114c85780820151818401526020810190506114ad565b50505050905090810190601f1680156114f55780820380516001836020036101000a031916815260200191505b50858103845288818151815260200191508051906020019080838360005b8381101561152e578082015181840152602081019050611513565b50505050905090810190601f16801561155b5780820380516001836020036101000a031916815260200191505b50858103835287818151815260200191508051906020019080838360005b83811015611594578082015181840152602081019050611579565b50505050905090810190601f1680156115c15780820380516001836020036101000a031916815260200191505b50858103825286818151815260200191508051906020019080838360005b838110156115fa5780820151818401526020810190506115df565b50505050905090810190601f1680156116275780820380516001836020036101000a031916815260200191505b509850505050505050505060405180910390f35b6118e3600480360360c081101561165157600080fd5b81019080803573ffffffffffffffffffffffffffffffffffffffff1690602001909291908035906020019064010000000081111561168e57600080fd5b8201836020820111156116a057600080fd5b803590602001918460018302840111640100000000831117156116c257600080fd5b91908080601f016020809104026020016040519081016040528093929190818152602001838380828437600081840152601f19601f8201169050808301925050505050505091929192908035906020019064010000000081111561172557600080fd5b82018360208201111561173757600080fd5b8035906020019184600183028401116401000000008311171561175957600080fd5b91908080601f016020809104026020016040519081016040528093929190818152602001838380828437600081840152601f19601f820116905080830192505050505050509192919290803590602001906401000000008111156117bc57600080fd5b8201836020820111156117ce57600080fd5b803590602001918460018302840111640100000000831117156117f057600080fd5b91908080601f016020809104026020016040519081016040528093929190818152602001838380828437600081840152601f19601f820116905080830192505050505050509192919290803590602001909291908035906020019064010000000081111561185d57600080fd5b82018360208201111561186f57600080fd5b8035906020019184600183028401116401000000008311171561189157600080fd5b91908080601f016020809104026020016040519081016040528093929190818152602001838380828437600081840152601f19601f82011690508083019250505050505050919291929050505061448b565b005b6118ed61457a565b604051808273ffffffffffffffffffffffffffffffffffffffff1673ffffffffffffffffffffffffffffffffffffffff16815260200191505060405180910390f35b611b366004803603608081101561194557600080fd5b81019080803573ffffffffffffffffffffffffffffffffffffffff1690602001909291908035906020019064010000000081111561198257600080fd5b82018360208201111561199457600080fd5b803590602001918460018302840111640100000000831117156119b657600080fd5b91908080601f016020809104026020016040519081016040528093929190818152602001838380828437600081840152601f19601f82011690508083019250505050505050919291929080359060200190640100000000811115611a1957600080fd5b820183602082011115611a2b57600080fd5b80359060200191846001830284011164010000000083111715611a4d57600080fd5b91908080601f016020809104026020016040519081016040528093929190818152602001838380828437600081840152601f19601f82011690508083019250505050505050919291929080359060200190640100000000811115611ab057600080fd5b820183602082011115611ac257600080fd5b80359060200191846001830284011164010000000083111715611ae457600080fd5b91908080601f016020809104026020016040519081016040528093929190818152602001838380828437600081840152601f19601f82011690508083019250505050505050919291929050505061459f565b005b611b7a60048036036020811015611b4e57600080fd5b81019080803573ffffffffffffffffffffffffffffffffffffffff169060200190929190505050614659565b60405180841515151581526020018315151515815260200182151515158152602001935050505060405180910390f35b611bec60048036036020811015611bc057600080fd5b81019080803573ffffffffffffffffffffffffffffffffffffffff1690602001909291905050506146e4565b604051808060200180602001806020018060200186815260200185810385528a818151815260200191508051906020019080838360005b83811015611c3e578082015181840152602081019050611c23565b50505050905090810190601f168015611c6b5780820380516001836020036101000a031916815260200191505b50858103845289818151815260200191508051906020019080838360005b83811015611ca4578082015181840152602081019050611c89565b50505050905090810190601f168015611cd15780820380516001836020036101000a031916815260200191505b50858103835288818151815260200191508051906020019080838360005b83811015611d0a578082015181840152602081019050611cef565b50505050905090810190601f168015611d375780820380516001836020036101000a031916815260200191505b50858103825287818151815260200191508051906020019080838360005b83811015611d70578082015181840152602081019050611d55565b50505050905090810190601f168015611d9d5780820380516001836020036101000a031916815260200191505b50995050505050505050505060405180910390f35b611df460048036036020811015611dc857600080fd5b81019080803573ffffffffffffffffffffffffffffffffffffffff1690602001909291905050506149c7565b6040518080602001806020018060200180602001858103855289818151815260200191508051906020019080838360005b83811015611e40578082015181840152602081019050611e25565b50505050905090810190601f168015611e6d5780820380516001836020036101000a031916815260200191505b50858103845288818151815260200191508051906020019080838360005b83811015611ea6578082015181840152602081019050611e8b565b50505050905090810190601f168015611ed35780820380516001836020036101000a031916815260200191505b50858103835287818151815260200191508051906020019080838360005b83811015611f0c578082015181840152602081019050611ef1565b50505050905090810190601f168015611f395780820380516001836020036101000a031916815260200191505b50858103825286818151815260200191508051906020019080838360005b83811015611f72578082015181840152602081019050611f57565b50505050905090810190601f168015611f9f5780820380516001836020036101000a031916815260200191505b509850505050505050505060405180910390f35b612251600480360360a0811015611fc957600080fd5b81019080803573ffffffffffffffffffffffffffffffffffffffff1690602001909291908035906020019064010000000081111561200657600080fd5b82018360208201111561201857600080fd5b8035906020019184600183028401116401000000008311171561203a57600080fd5b91908080601f016020809104026020016040519081016040528093929190818152602001838380828437600081840152601f19601f8201169050808301925050505050505091929192908035906020019064010000000081111561209d57600080fd5b8201836020820111156120af57600080fd5b803590602001918460018302840111640100000000831117156120d157600080fd5b91908080601f016020809104026020016040519081016040528093929190818152602001838380828437600081840152601f19601f8201169050808301925050505050505091929192908035906020019064010000000081111561213457600080fd5b82018360208201111561214657600080fd5b8035906020019184600183028401116401000000008311171561216857600080fd5b91908080601f016020809104026020016040519081016040528093929190818152602001838380828437600081840152601f19601f820116905080830192505050505050509192919290803590602001906401000000008111156121cb57600080fd5b8201836020820111156121dd57600080fd5b803590602001918460018302840111640100000000831117156121ff57600080fd5b91908080601f016020809104026020016040519081016040528093929190818152602001838380828437600081840152601f19601f820116905080830192505050505050509192919290505050614ca0565b005b6122956004803603602081101561226957600080fd5b81019080803573ffffffffffffffffffffffffffffffffffffffff169060200190929190505050614dd9565b6040518080602001806020018060200180602001858103855289818151815260200191508051906020019080838360005b838110156122e15780820151818401526020810190506122c6565b50505050905090810190601f16801561230e5780820380516001836020036101000a031916815260200191505b50858103845288818151815260200191508051906020019080838360005b8381101561234757808201518184015260208101905061232c565b50505050905090810190601f1680156123745780820380516001836020036101000a031916815260200191505b50858103835287818151815260200191508051906020019080838360005b838110156123ad578082015181840152602081019050612392565b50505050905090810190601f1680156123da5780820380516001836020036101000a031916815260200191505b50858103825286818151815260200191508051906020019080838360005b838110156124135780820151818401526020810190506123f8565b50505050905090810190601f1680156124405780820380516001836020036101000a031916815260200191505b509850505050505050505060405180910390f35b6126f2600480360360a081101561246a57600080fd5b81019080803573ffffffffffffffffffffffffffffffffffffffff169060200190929190803590602001906401000000008111156124a757600080fd5b8201836020820111156124b957600080fd5b803590602001918460018302840111640100000000831117156124db57600080fd5b91908080601f016020809104026020016040519081016040528093929190818152602001838380828437600081840152601f19601f8201169050808301925050505050505091929192908035906020019064010000000081111561253e57600080fd5b82018360208201111561255057600080fd5b8035906020019184600183028401116401000000008311171561257257600080fd5b91908080601f016020809104026020016040519081016040528093929190818152602001838380828437600081840152601f19601f820116905080830192505050505050509192919290803590602001906401000000008111156125d557600080fd5b8201836020820111156125e757600080fd5b8035906020019184600183028401116401000000008311171561260957600080fd5b91908080601f016020809104026020016040519081016040528093929190818152602001838380828437600081840152601f19601f8201169050808301925050505050505091929192908035906020019064010000000081111561266c57600080fd5b82018360208201111561267e57600080fd5b803590602001918460018302840111640100000000831117156126a057600080fd5b91908080601f016020809104026020016040519081016040528093929190818152602001838380828437600081840152601f19601f820116905080830192505050505050509192919290505050615069565b005b6129726004803603608081101561270a57600080fd5b810190808035906020019064010000000081111561272757600080fd5b82018360208201111561273957600080fd5b8035906020019184600183028401116401000000008311171561275b57600080fd5b91908080601f016020809104026020016040519081016040528093929190818152602001838380828437600081840152601f19601f820116905080830192505050505050509192919290803590602001906401000000008111156127be57600080fd5b8201836020820111156127d057600080fd5b803590602001918460018302840111640100000000831117156127f257600080fd5b91908080601f016020809104026020016040519081016040528093929190818152602001838380828437600081840152601f19601f8201169050808301925050505050505091929192908035906020019064010000000081111561285557600080fd5b82018360208201111561286757600080fd5b8035906020019184600183028401116401000000008311171561288957600080fd5b91908080601f016020809104026020016040519081016040528093929190818152602001838380828437600081840152601f19601f820116905080830192505050505050509192919290803590602001906401000000008111156128ec57600080fd5b8201836020820111156128fe57600080fd5b8035906020019184600183028401116401000000008311171561292057600080fd5b91908080601f016020809104026020016040519081016040528093929190818152602001838380828437600081840152601f19601f8201169050808301925050505050505091929192905050506151a2565b005b6129b66004803603602081101561298a57600080fd5b81019080803573ffffffffffffffffffffffffffffffffffffffff169060200190929190505050615299565b6040518080602001806020018060200180602001858103855289818151815260200191508051906020019080838360005b83811015612a025780820151818401526020810190506129e7565b50505050905090810190601f168015612a2f5780820380516001836020036101000a031916815260200191505b50858103845288818151815260200191508051906020019080838360005b83811015612a68578082015181840152602081019050612a4d565b50505050905090810190601f168015612a955780820380516001836020036101000a031916815260200191505b50858103835287818151815260200191508051906020019080838360005b83811015612ace578082015181840152602081019050612ab3565b50505050905090810190601f168015612afb5780820380516001836020036101000a031916815260200191505b50858103825286818151815260200191508051906020019080838360005b83811015612b34578082015181840152602081019050612b19565b50505050905090810190601f168015612b615780820380516001836020036101000a031916815260200191505b509850505050505050505060405180910390f35b612e13600480360360a0811015612b8b57600080fd5b81019080803573ffffffffffffffffffffffffffffffffffffffff16906020019092919080359060200190640100000000811115612bc857600080fd5b820183602082011115612bda57600080fd5b80359060200191846001830284011164010000000083111715612bfc57600080fd5b91908080601f016020809104026020016040519081016040528093929190818152602001838380828437600081840152601f19601f82011690508083019250505050505050919291929080359060200190640100000000811115612c5f57600080fd5b820183602082011115612c7157600080fd5b80359060200191846001830284011164010000000083111715612c9357600080fd5b91908080601f016020809104026020016040519081016040528093929190818152602001838380828437600081840152601f19601f82011690508083019250505050505050919291929080359060200190640100000000811115612cf657600080fd5b820183602082011115612d0857600080fd5b80359060200191846001830284011164010000000083111715612d2a57600080fd5b91908080601f016020809104026020016040519081016040528093929190818152602001838380828437600081840152601f19601f82011690508083019250505050505050919291929080359060200190640100000000811115612d8d57600080fd5b820183602082011115612d9f57600080fd5b80359060200191846001830284011164010000000083111715612dc157600080fd5b91908080601f016020809104026020016040519081016040528093929190818152602001838380828437600081840152601f19601f820116905080830192505050505050509192919290505050615529565b005b6006602052806000526040600020600091509050806000018054600181600116156101000203166002900480601f016020809104026020016040519081016040528092919081815260200182805460018160011615610100020316600290048015612ec15780601f10612e9657610100808354040283529160200191612ec1565b820191906000526020600020905b815481529060010190602001808311612ea457829003601f168201915b505050505090806001018054600181600116156101000203166002900480601f016020809104026020016040519081016040528092919081815260200182805460018160011615610100020316600290048015612f5f5780601f10612f3457610100808354040283529160200191612f5f565b820191906000526020600020905b815481529060010190602001808311612f4257829003601f168201915b505050505090806002018054600181600116156101000203166002900480601f016020809104026020016040519081016040528092919081815260200182805460018160011615610100020316600290048015612ffd5780601f10612fd257610100808354040283529160200191612ffd565b820191906000526020600020905b815481529060010190602001808311612fe057829003601f168201915b5050505050905083565b60056020528060005260406000206000915090508060000160009054906101000a900460ff16908060000160019054906101000a900460ff16908060000160029054906101000a900460ff16905083565b6060806060806000600260008773ffffffffffffffffffffffffffffffffffffffff1673ffffffffffffffffffffffffffffffffffffffff168152602001908152602001600020905080600001816001018260020183600301838054600181600116156101000203166002900480601f0160208091040260200160405190810160405280929190818152602001828054600181600116156101000203166002900480156131465780601f1061311b57610100808354040283529160200191613146565b820191906000526020600020905b81548152906001019060200180831161312957829003601f168201915b50505050509350828054600181600116156101000203166002900480601f0160208091040260200160405190810160405280929190818152602001828054600181600116156101000203166002900480156131e25780601f106131b7576101008083540402835291602001916131e2565b820191906000526020600020905b8154815290600101906020018083116131c557829003601f168201915b50505050509250818054600181600116156101000203166002900480601f01602080910402602001604051908101604052809291908181526020018280546001816001161561010002031660029004801561327e5780601f106132535761010080835404028352916020019161327e565b820191906000526020600020905b81548152906001019060200180831161326157829003601f168201915b50505050509150808054600181600116156101000203166002900480601f01602080910402602001604051908101604052809291908181526020018280546001816001161561010002031660029004801561331a5780601f106132ef5761010080835404028352916020019161331a565b820191906000526020600020905b8154815290600101906020018083116132fd57829003601f168201915b505050505090509450945094509450509193509193565b60608060606000600660008673ffffffffffffffffffffffffffffffffffffffff1673ffffffffffffffffffffffffffffffffffffffff1681526020019081526020016000209050806000018160010182600201828054600181600116156101000203166002900480601f01602080910402602001604051908101604052809291908181526020018280546001816001161561010002031660029004801561341a5780601f106133ef5761010080835404028352916020019161341a565b820191906000526020600020905b8154815290600101906020018083116133fd57829003601f168201915b50505050509250818054600181600116156101000203166002900480601f0160208091040260200160405190810160405280929190818152602001828054600181600116156101000203166002900480156134b65780601f1061348b576101008083540402835291602001916134b6565b820191906000526020600020905b81548152906001019060200180831161349957829003601f168201915b50505050509150808054600181600116156101000203166002900480601f0160208091040260200160405190810160405280929190818152602001828054600181600116156101000203166002900480156135525780601f1061352757610100808354040283529160200191613552565b820191906000526020600020905b81548152906001019060200180831161353557829003601f168201915b50505050509050935093509350509193909250565b604051806080016040528085815260200184815260200183815260200182815250600760008773ffffffffffffffffffffffffffffffffffffffff1673ffffffffffffffffffffffffffffffffffffffff16815260200190815260200160002060008201518160000190805190602001906135e3929190615662565b506020820151816001019080519060200190613600929190615662565b50604082015181600201908051906020019061361d929190615662565b50606082015181600301908051906020019061363a929190615662565b509050505050505050565b6004602052806000526040600020600091509050806000018054600181600116156101000203166002900480601f0160208091040260200160405190810160405280929190818152602001828054600181600116156101000203166002900480156136f15780601f106136c6576101008083540402835291602001916136f1565b820191906000526020600020905b8154815290600101906020018083116136d457829003601f168201915b505050505090806001018054600181600116156101000203166002900480601f01602080910402602001604051908101604052809291908181526020018280546001816001161561010002031660029004801561378f5780601f106137645761010080835404028352916020019161378f565b820191906000526020600020905b81548152906001019060200180831161377257829003601f168201915b505050505090806002018054600181600116156101000203166002900480601f01602080910402602001604051908101604052809291908181526020018280546001816001161561010002031660029004801561382d5780601f106138025761010080835404028352916020019161382d565b820191906000526020600020905b81548152906001019060200180831161381057829003601f168201915b505050505090806003018054600181600116156101000203166002900480601f0160208091040260200160405190810160405280929190818152602001828054600181600116156101000203166002900480156138cb5780601f106138a0576101008083540402835291602001916138cb565b820191906000526020600020905b8154815290600101906020018083116138ae57829003601f168201915b5050505050905084565b6001602052806000526040600020600091509050806000018054600181600116156101000203166002900480601f0160208091040260200160405190810160405280929190818152602001828054600181600116156101000203166002900480156139815780601f1061395657610100808354040283529160200191613981565b820191906000526020600020905b81548152906001019060200180831161396457829003601f168201915b505050505090806001018054600181600116156101000203166002900480601f016020809104026020016040519081016040528092919081815260200182805460018160011615610100020316600290048015613a1f5780601f106139f457610100808354040283529160200191613a1f565b820191906000526020600020905b815481529060010190602001808311613a0257829003601f168201915b505050505090806002018054600181600116156101000203166002900480601f016020809104026020016040519081016040528092919081815260200182805460018160011615610100020316600290048015613abd5780601f10613a9257610100808354040283529160200191613abd565b820191906000526020600020905b815481529060010190602001808311613aa057829003601f168201915b505050505090806003015490806004018054600181600116156101000203166002900480601f016020809104026020016040519081016040528092919081815260200182805460018160011615610100020316600290048015613b615780601f10613b3657610100808354040283529160200191613b61565b820191906000526020600020905b815481529060010190602001808311613b4457829003601f168201915b5050505050905085565b6060806060806000600760008773ffffffffffffffffffffffffffffffffffffffff1673ffffffffffffffffffffffffffffffffffffffff168152602001908152602001600020905080600001816001018260020183600301838054600181600116156101000203166002900480601f016020809104026020016040519081016040528092919081815260200182805460018160011615610100020316600290048015613c595780601f10613c2e57610100808354040283529160200191613c59565b820191906000526020600020905b815481529060010190602001808311613c3c57829003601f168201915b50505050509350828054600181600116156101000203166002900480601f016020809104026020016040519081016040528092919081815260200182805460018160011615610100020316600290048015613cf55780601f10613cca57610100808354040283529160200191613cf5565b820191906000526020600020905b815481529060010190602001808311613cd857829003601f168201915b50505050509250818054600181600116156101000203166002900480601f016020809104026020016040519081016040528092919081815260200182805460018160011615610100020316600290048015613d915780601f10613d6657610100808354040283529160200191613d91565b820191906000526020600020905b815481529060010190602001808311613d7457829003601f168201915b50505050509150808054600181600116156101000203166002900480601f016020809104026020016040519081016040528092919081815260200182805460018160011615610100020316600290048015613e2d5780601f10613e0257610100808354040283529160200191613e2d565b820191906000526020600020905b815481529060010190602001808311613e1057829003601f168201915b505050505090509450945094509450509193509193565b6007602052806000526040600020600091509050806000018054600181600116156101000203166002900480601f016020809104026020016040519081016040528092919081815260200182805460018160011615610100020316600290048015613ef05780601f10613ec557610100808354040283529160200191613ef0565b820191906000526020600020905b815481529060010190602001808311613ed357829003601f168201915b505050505090806001018054600181600116156101000203166002900480601f016020809104026020016040519081016040528092919081815260200182805460018160011615610100020316600290048015613f8e5780601f10613f6357610100808354040283529160200191613f8e565b820191906000526020600020905b815481529060010190602001808311613f7157829003601f168201915b505050505090806002018054600181600116156101000203166002900480601f01602080910402602001604051908101604052809291908181526020018280546001816001161561010002031660029004801561402c5780601f106140015761010080835404028352916020019161402c565b820191906000526020600020905b81548152906001019060200180831161400f57829003601f168201915b505050505090806003018054600181600116156101000203166002900480601f0160208091040260200160405190810160405280929190818152602001828054600181600116156101000203166002900480156140ca5780601f1061409f576101008083540402835291602001916140ca565b820191906000526020600020905b8154815290600101906020018083116140ad57829003601f168201915b5050505050905084565b604051806080016040528085815260200184815260200183815260200182815250600760008773ffffffffffffffffffffffffffffffffffffffff1673ffffffffffffffffffffffffffffffffffffffff1681526020019081526020016000206000820151816000019080519060200190614150929190615662565b50602082015181600101908051906020019061416d929190615662565b50604082015181600201908051906020019061418a929190615662565b5060608201518160030190805190602001906141a7929190615662565b509050505050505050565b6060806060806000600360008773ffffffffffffffffffffffffffffffffffffffff1673ffffffffffffffffffffffffffffffffffffffff168152602001908152602001600020905080600001816001018260020183600301838054600181600116156101000203166002900480601f0160208091040260200160405190810160405280929190818152602001828054600181600116156101000203166002900480156142a05780601f10614275576101008083540402835291602001916142a0565b820191906000526020600020905b81548152906001019060200180831161428357829003601f168201915b50505050509350828054600181600116156101000203166002900480601f01602080910402602001604051908101604052809291908181526020018280546001816001161561010002031660029004801561433c5780601f106143115761010080835404028352916020019161433c565b820191906000526020600020905b81548152906001019060200180831161431f57829003601f168201915b50505050509250818054600181600116156101000203166002900480601f0160208091040260200160405190810160405280929190818152602001828054600181600116156101000203166002900480156143d85780601f106143ad576101008083540402835291602001916143d8565b820191906000526020600020905b8154815290600101906020018083116143bb57829003601f168201915b50505050509150808054600181600116156101000203166002900480601f0160208091040260200160405190810160405280929190818152602001828054600181600116156101000203166002900480156144745780601f1061444957610100808354040283529160200191614474565b820191906000526020600020905b81548152906001019060200180831161445757829003601f168201915b505050505090509450945094509450509193509193565b6040518060a0016040528086815260200185815260200184815260200183815260200182815250600160008873ffffffffffffffffffffffffffffffffffffffff1673ffffffffffffffffffffffffffffffffffffffff168152602001908152602001600020600082015181600001908051906020019061450d929190615662565b50602082015181600101908051906020019061452a929190615662565b506040820151816002019080519060200190614547929190615662565b5060608201518160030155608082015181600401908051906020019061456e929190615662565b50905050505050505050565b6000809054906101000a900473ffffffffffffffffffffffffffffffffffffffff1681565b604051806060016040528084815260200183815260200182815250600660008673ffffffffffffffffffffffffffffffffffffffff1673ffffffffffffffffffffffffffffffffffffffff1681526020019081526020016000206000820151816000019080519060200190614615929190615662565b506020820151816001019080519060200190614632929190615662565b50604082015181600201908051906020019061464f929190615662565b5090505050505050565b600080600080600560008673ffffffffffffffffffffffffffffffffffffffff1673ffffffffffffffffffffffffffffffffffffffff16815260200190815260200160002090508060000160009054906101000a900460ff168160000160019054906101000a900460ff168260000160029054906101000a900460ff16935093509350509193909250565b606080606080600080600160008873ffffffffffffffffffffffffffffffffffffffff1673ffffffffffffffffffffffffffffffffffffffff1681526020019081526020016000209050806000018160010182600201836004018460030154848054600181600116156101000203166002900480601f0160208091040260200160405190810160405280929190818152602001828054600181600116156101000203166002900480156147d85780601f106147ad576101008083540402835291602001916147d8565b820191906000526020600020905b8154815290600101906020018083116147bb57829003601f168201915b50505050509450838054600181600116156101000203166002900480601f0160208091040260200160405190810160405280929190818152602001828054600181600116156101000203166002900480156148745780601f1061484957610100808354040283529160200191614874565b820191906000526020600020905b81548152906001019060200180831161485757829003601f168201915b50505050509350828054600181600116156101000203166002900480601f0160208091040260200160405190810160405280929190818152602001828054600181600116156101000203166002900480156149105780601f106148e557610100808354040283529160200191614910565b820191906000526020600020905b8154815290600101906020018083116148f357829003601f168201915b50505050509250818054600181600116156101000203166002900480601f0160208091040260200160405190810160405280929190818152602001828054600181600116156101000203166002900480156149ac5780601f10614981576101008083540402835291602001916149ac565b820191906000526020600020905b81548152906001019060200180831161498f57829003601f168201915b50505050509150955095509550955095505091939590929450565b6060806060806000600460008773ffffffffffffffffffffffffffffffffffffffff1673ffffffffffffffffffffffffffffffffffffffff168152602001908152602001600020905080600001816001018260020183600301838054600181600116156101000203166002900480601f016020809104026020016040519081016040528092919081815260200182805460018160011615610100020316600290048015614ab55780601f10614a8a57610100808354040283529160200191614ab5565b820191906000526020600020905b815481529060010190602001808311614a9857829003601f168201915b50505050509350828054600181600116156101000203166002900480601f016020809104026020016040519081016040528092919081815260200182805460018160011615610100020316600290048015614b515780601f10614b2657610100808354040283529160200191614b51565b820191906000526020600020905b815481529060010190602001808311614b3457829003601f168201915b50505050509250818054600181600116156101000203166002900480601f016020809104026020016040519081016040528092919081815260200182805460018160011615610100020316600290048015614bed5780601f10614bc257610100808354040283529160200191614bed565b820191906000526020600020905b815481529060010190602001808311614bd057829003601f168201915b50505050509150808054600181600116156101000203166002900480601f016020809104026020016040519081016040528092919081815260200182805460018160011615610100020316600290048015614c895780601f10614c5e57610100808354040283529160200191614c89565b820191906000526020600020905b815481529060010190602001808311614c6c57829003601f168201915b505050505090509450945094509450509193509193565b604051806080016040528085815260200184815260200183815260200182815250600260008773ffffffffffffffffffffffffffffffffffffffff1673ffffffffffffffffffffffffffffffffffffffff1681526020019081526020016000206000820151816000019080519060200190614d1c929190615662565b506020820151816001019080519060200190614d39929190615662565b506040820151816002019080519060200190614d56929190615662565b506060820151816003019080519060200190614d73929190615662565b509050506001600560008773ffffffffffffffffffffffffffffffffffffffff1673ffffffffffffffffffffffffffffffffffffffff16815260200190815260200160002060000160006101000a81548160ff0219169083151502179055505050505050565b6003602052806000526040600020600091509050806000018054600181600116156101000203166002900480601f016020809104026020016040519081016040528092919081815260200182805460018160011615610100020316600290048015614e855780601f10614e5a57610100808354040283529160200191614e85565b820191906000526020600020905b815481529060010190602001808311614e6857829003601f168201915b505050505090806001018054600181600116156101000203166002900480601f016020809104026020016040519081016040528092919081815260200182805460018160011615610100020316600290048015614f235780601f10614ef857610100808354040283529160200191614f23565b820191906000526020600020905b815481529060010190602001808311614f0657829003601f168201915b505050505090806002018054600181600116156101000203166002900480601f016020809104026020016040519081016040528092919081815260200182805460018160011615610100020316600290048015614fc15780601f10614f9657610100808354040283529160200191614fc1565b820191906000526020600020905b815481529060010190602001808311614fa457829003601f168201915b505050505090806003018054600181600116156101000203166002900480601f01602080910402602001604051908101604052809291908181526020018280546001816001161561010002031660029004801561505f5780601f106150345761010080835404028352916020019161505f565b820191906000526020600020905b81548152906001019060200180831161504257829003601f168201915b5050505050905084565b604051806080016040528085815260200184815260200183815260200182815250600360008773ffffffffffffffffffffffffffffffffffffffff1673ffffffffffffffffffffffffffffffffffffffff16815260200190815260200160002060008201518160000190805190602001906150e5929190615662565b506020820151816001019080519060200190615102929190615662565b50604082015181600201908051906020019061511f929190615662565b50606082015181600301908051906020019061513c929190615662565b509050506001600560008773ffffffffffffffffffffffffffffffffffffffff1673ffffffffffffffffffffffffffffffffffffffff16815260200190815260200160002060000160016101000a81548160ff0219169083151502179055505050505050565b600073069531386d1b08423fdbb45d167356a8ea7410f29050604051806080016040528086815260200185815260200184815260200183815250600760008373ffffffffffffffffffffffffffffffffffffffff1673ffffffffffffffffffffffffffffffffffffffff1681526020019081526020016000206000820151816000019080519060200190615237929190615662565b506020820151816001019080519060200190615254929190615662565b506040820151816002019080519060200190615271929190615662565b50606082015181600301908051906020019061528e929190615662565b509050505050505050565b6002602052806000526040600020600091509050806000018054600181600116156101000203166002900480601f0160208091040260200160405190810160405280929190818152602001828054600181600116156101000203166002900480156153455780601f1061531a57610100808354040283529160200191615345565b820191906000526020600020905b81548152906001019060200180831161532857829003601f168201915b505050505090806001018054600181600116156101000203166002900480601f0160208091040260200160405190810160405280929190818152602001828054600181600116156101000203166002900480156153e35780601f106153b8576101008083540402835291602001916153e3565b820191906000526020600020905b8154815290600101906020018083116153c657829003601f168201915b505050505090806002018054600181600116156101000203166002900480601f0160208091040260200160405190810160405280929190818152602001828054600181600116156101000203166002900480156154815780601f1061545657610100808354040283529160200191615481565b820191906000526020600020905b81548152906001019060200180831161546457829003601f168201915b505050505090806003018054600181600116156101000203166002900480601f01602080910402602001604051908101604052809291908181526020018280546001816001161561010002031660029004801561551f5780601f106154f45761010080835404028352916020019161551f565b820191906000526020600020905b81548152906001019060200180831161550257829003601f168201915b5050505050905084565b604051806080016040528085815260200184815260200183815260200182815250600460008773ffffffffffffffffffffffffffffffffffffffff1673ffffffffffffffffffffffffffffffffffffffff16815260200190815260200160002060008201518160000190805190602001906155a5929190615662565b5060208201518160010190805190602001906155c2929190615662565b5060408201518160020190805190602001906155df929190615662565b5060608201518160030190805190602001906155fc929190615662565b509050506001600560008773ffffffffffffffffffffffffffffffffffffffff1673ffffffffffffffffffffffffffffffffffffffff16815260200190815260200160002060000160026101000a81548160ff0219169083151502179055505050505050565b828054600181600116156101000203166002900490600052602060002090601f016020900481019282601f106156a357805160ff19168380011785556156d1565b828001600101855582156156d1579182015b828111156156d05782518255916020019190600101906156b5565b5b5090506156de91906156e2565b5090565b61570491905b808211156157005760008160009055506001016156e8565b5090565b9056fea265627a7a72315820cfd5ca259a7f3d4ac53a342df5c83cb6a33ebb406eaa3308380f10bfe188286364736f6c63430005100032",
  "source": "pragma solidity >=0.5.16 <0.8.0;\n\ncontract ManageID {\n    address public ContractOwner;\n    \n    constructor() public {\n        ContractOwner = msg.sender;\n    }\n\n    struct User {\n        string first_name;\n        string last_name;\n        string email;\n        uint256 phone_no;\n        string password;\n    }\n    struct UserAadhar {\n        string aadhar_no;\n        string aadhar_name;\n        string aadhar_DOB;\n        string aadhar_ipfs_hash;\n    }\n    struct UserDrivingLicense {\n        string dl_no;\n        string dl_name;\n        string dl_DOB;\n        string dl_ipfs_hash;\n    }\n    struct UserPassport {\n        string passport_no;\n        string passport_name;\n        string passport_birth_place;\n        string passport_ipfs_hash;\n    }\n\n    struct UploadedDocuments {\n        bool aadhar;\n        bool driving_license;\n        bool passport;\n    }\n\n    \n\n    mapping(address => User) public UserMap;\n    mapping(address => UserAadhar) public UserAadharMap;\n    mapping(address => UserDrivingLicense) public UserDLMap;\n    mapping(address => UserPassport) public UserPassportMap;\n\n    mapping(address => UploadedDocuments) public UploadedDocMap;\n\n    function addUser(\n        address user_address,\n        string memory first_name,\n        string memory last_name,\n        string memory email,\n        uint256 phone_no,\n        string memory password\n        ) public {\n            UserMap[user_address] = User(first_name, last_name, email, phone_no, password);\n    }\n\n    function addUserAadhar(\n        address user_address,\n        string memory aadhar_no,\n        string memory aadhar_name,\n        string memory aadhar_dob,\n        string memory aadhar_ipfs_hash\n        ) public {\n            UserAadharMap[user_address] = UserAadhar( aadhar_no, aadhar_name, aadhar_dob, aadhar_ipfs_hash);\n            UploadedDocMap[user_address].aadhar = true;\n    }\n\n    function addUserDrivingLicense(\n        address user_address,\n        string memory dl_no,\n        string memory dl_name,\n        string memory dl_dob,\n        string memory dl_ipfs_hash\n        ) public {\n            UserDLMap[user_address] = UserDrivingLicense( dl_no, dl_name, dl_dob, dl_ipfs_hash);\n            UploadedDocMap[user_address].driving_license = true;\n    }\n\n    function addUserPassport(\n        address user_address,\n        string memory passport_no,\n        string memory passport_name,\n        string memory passport_birth_place,\n        string memory passport_ipfs_hash\n        ) public {\n            UserPassportMap[user_address] = UserPassport( passport_no, passport_name, passport_birth_place, passport_ipfs_hash);\n            UploadedDocMap[user_address].passport = true;\n    }\n\n    function getUploadedDocs(address user_address) public view \n        returns (\n            bool aadhar,\n            bool driving_license,\n            bool passport\n            ) {\n            UploadedDocuments storage Docs = UploadedDocMap[user_address];\n            return ( \n                Docs.aadhar, \n                Docs.driving_license, \n                Docs.passport );\n    }\n\n    function getUser(address user_address) public view\n        returns (\n            string memory first_name,\n            string memory last_name,\n            string memory email,\n            string memory password,\n            uint256 phone_no\n            ) {\n            User storage ThisUser = UserMap[user_address];\n            return ( \n                ThisUser.first_name, \n                ThisUser.last_name, \n                ThisUser.email,\n                ThisUser.password, \n                ThisUser.phone_no );\n    }\n\n    function getUserAadhar(address user_address) public view \n        returns (\n            string memory aadhar_no,\n            string memory aadhar_name,\n            string memory aadhar_DOB,\n            string memory aadhar_ipfs_hash\n        ) {\n            UserAadhar storage Data =UserAadharMap[user_address];\n\n            return (\n                Data.aadhar_no,\n                Data.aadhar_name,\n                Data.aadhar_DOB,\n                Data.aadhar_ipfs_hash\n            );\n    }\n\n    function getUserDrivingLicense(address user_address) public view \n        returns (\n            string memory dl_no,\n            string memory dl_name,\n            string memory dl_DOB,\n            string memory dl_ipfs_hash\n        ) {\n            UserDrivingLicense storage Data =UserDLMap[user_address];\n\n            return (\n                Data.dl_no,\n                Data.dl_name,\n                Data.dl_DOB,\n                Data.dl_ipfs_hash\n            );\n    }\n\n    function getUserPassport(address user_address) public view \n        returns (\n            string memory passport_no,\n            string memory passport_name,\n            string memory passport_birth_place,\n            string memory passport_ipfs_hash\n        ) {\n            UserPassport storage Data =UserPassportMap[user_address];\n\n            return (\n                Data.passport_no,\n                Data.passport_name,\n                Data.passport_birth_place,\n                Data.passport_ipfs_hash\n            );\n    }\n\n\n    // Organization\n    struct Org {\n        string name;\n        string email;\n        string password;\n    }\n\n    mapping(address => Org) public OrgMap;\n\n    function addOrg(\n        address org_address,\n        string memory name,\n        string memory email,\n        string memory password\n        ) public {\n            OrgMap[org_address] = Org( name, email, password);\n    }\n\n    function getOrg(address org_address) public view\n        returns (\n            string memory name,\n            string memory email,\n            string memory password\n            ) {\n            Org storage ThisOrg = OrgMap[org_address];\n            return ( \n                ThisOrg.name,  \n                ThisOrg.email,\n                ThisOrg.password );\n    }\n\n    // Request Documents\n\n    /*\n    status 0 : default\n    status 1 : requested\n    status 2 : approved\n    status 3 : decline\n    */\n\n    struct RequestDocuments {\n        string requestedBy;\n        string aadhar;\n        string dl;\n        string passport;\n    }\n\n    mapping(address => RequestDocuments) public RequestDocumentsMap;\n\n    function sendRequest(\n        string memory requestedBy,\n        string memory aadhar,\n        string memory dl,\n        string memory passport\n        ) public {\n            address user_address = 0x069531386d1B08423fDBB45d167356A8Ea7410f2;\n            RequestDocumentsMap[user_address] = RequestDocuments( requestedBy, aadhar, dl, passport);\n    }\n\n    function sendApproved(\n        address user_address,\n        string memory requestedBy,\n        string memory aadhar,\n        string memory dl,\n        string memory passport\n        ) public {\n            RequestDocumentsMap[user_address] = RequestDocuments( requestedBy,aadhar, dl, passport);\n    }\n\n    function sendRejected(\n        address user_address,\n        string memory requestedBy,\n        string memory aadhar,\n        string memory dl,\n        string memory passport\n        ) public {\n            RequestDocumentsMap[user_address] = RequestDocuments( requestedBy,aadhar, dl, passport);\n    }\n\n    function viewRequest(address user_address) public view\n        returns (\n            string memory requestedBy,\n            string memory aadhar,\n            string memory dl,\n            string memory passport\n            ) {\n            RequestDocuments storage ThisDocuments = RequestDocumentsMap[user_address];\n            return ( \n                ThisDocuments.requestedBy,\n                ThisDocuments.aadhar,\n                ThisDocuments.dl,\n                ThisDocuments.passport );\n    }\n\n\n}",
  "sourcePath": "/home/akash/Projects/ManageId/contracts/ManageID.sol",
  "compiler": {
    "name": "solc",
    "version": "0.5.16+commit.9c3226ce.Emscripten.clang"
  },
  "schemaVersion": "3.4.6",
  "updatedAt": "2022-04-14T12:23:52.649Z",
  "networkType": "ethereum",
  "devdoc": {
    "methods": {}
  },
  "userdoc": {
    "methods": {}
  }
}